{
  "_format": "hh-sol-artifact-1",
  "contractName": "REFFI",
  "sourceName": "contracts/refi.sol",
  "abi": [
    {
      "inputs": [],
      "stateMutability": "nonpayable",
      "type": "constructor"
    },
    {
      "anonymous": false,
      "inputs": [
        {
          "indexed": true,
          "internalType": "address",
          "name": "owner",
          "type": "address"
        },
        {
          "indexed": true,
          "internalType": "address",
          "name": "spender",
          "type": "address"
        },
        {
          "indexed": false,
          "internalType": "uint256",
          "name": "value",
          "type": "uint256"
        }
      ],
      "name": "Approval",
      "type": "event"
    },
    {
      "anonymous": false,
      "inputs": [
        {
          "indexed": true,
          "internalType": "address",
          "name": "previousOwner",
          "type": "address"
        },
        {
          "indexed": true,
          "internalType": "address",
          "name": "newOwner",
          "type": "address"
        }
      ],
      "name": "OwnershipTransferred",
      "type": "event"
    },
    {
      "anonymous": false,
      "inputs": [
        {
          "indexed": true,
          "internalType": "address",
          "name": "from",
          "type": "address"
        },
        {
          "indexed": true,
          "internalType": "address",
          "name": "to",
          "type": "address"
        },
        {
          "indexed": false,
          "internalType": "uint256",
          "name": "value",
          "type": "uint256"
        }
      ],
      "name": "Transfer",
      "type": "event"
    },
    {
      "inputs": [
        {
          "internalType": "address",
          "name": "owner",
          "type": "address"
        },
        {
          "internalType": "address",
          "name": "spender",
          "type": "address"
        }
      ],
      "name": "allowance",
      "outputs": [
        {
          "internalType": "uint256",
          "name": "",
          "type": "uint256"
        }
      ],
      "stateMutability": "view",
      "type": "function"
    },
    {
      "inputs": [
        {
          "internalType": "address",
          "name": "spender",
          "type": "address"
        },
        {
          "internalType": "uint256",
          "name": "amount",
          "type": "uint256"
        }
      ],
      "name": "approve",
      "outputs": [
        {
          "internalType": "bool",
          "name": "",
          "type": "bool"
        }
      ],
      "stateMutability": "nonpayable",
      "type": "function"
    },
    {
      "inputs": [
        {
          "internalType": "address",
          "name": "account",
          "type": "address"
        }
      ],
      "name": "balanceOf",
      "outputs": [
        {
          "internalType": "uint256",
          "name": "",
          "type": "uint256"
        }
      ],
      "stateMutability": "view",
      "type": "function"
    },
    {
      "inputs": [
        {
          "internalType": "address",
          "name": "account",
          "type": "address"
        }
      ],
      "name": "checkBlackList",
      "outputs": [
        {
          "internalType": "bool",
          "name": "",
          "type": "bool"
        }
      ],
      "stateMutability": "view",
      "type": "function"
    },
    {
      "inputs": [],
      "name": "decimals",
      "outputs": [
        {
          "internalType": "uint8",
          "name": "",
          "type": "uint8"
        }
      ],
      "stateMutability": "view",
      "type": "function"
    },
    {
      "inputs": [
        {
          "internalType": "address",
          "name": "account",
          "type": "address"
        }
      ],
      "name": "excludeListed",
      "outputs": [],
      "stateMutability": "nonpayable",
      "type": "function"
    },
    {
      "inputs": [
        {
          "internalType": "address",
          "name": "account",
          "type": "address"
        }
      ],
      "name": "includeListed",
      "outputs": [],
      "stateMutability": "nonpayable",
      "type": "function"
    },
    {
      "inputs": [],
      "name": "lock",
      "outputs": [],
      "stateMutability": "nonpayable",
      "type": "function"
    },
    {
      "inputs": [],
      "name": "name",
      "outputs": [
        {
          "internalType": "string",
          "name": "",
          "type": "string"
        }
      ],
      "stateMutability": "view",
      "type": "function"
    },
    {
      "inputs": [],
      "name": "owner",
      "outputs": [
        {
          "internalType": "address",
          "name": "",
          "type": "address"
        }
      ],
      "stateMutability": "view",
      "type": "function"
    },
    {
      "inputs": [],
      "name": "renounceOwnership",
      "outputs": [],
      "stateMutability": "nonpayable",
      "type": "function"
    },
    {
      "inputs": [],
      "name": "symbol",
      "outputs": [
        {
          "internalType": "string",
          "name": "",
          "type": "string"
        }
      ],
      "stateMutability": "view",
      "type": "function"
    },
    {
      "inputs": [],
      "name": "totalSupply",
      "outputs": [
        {
          "internalType": "uint256",
          "name": "",
          "type": "uint256"
        }
      ],
      "stateMutability": "view",
      "type": "function"
    },
    {
      "inputs": [
        {
          "internalType": "address",
          "name": "recipient",
          "type": "address"
        },
        {
          "internalType": "uint256",
          "name": "amount",
          "type": "uint256"
        }
      ],
      "name": "transfer",
      "outputs": [
        {
          "internalType": "bool",
          "name": "",
          "type": "bool"
        }
      ],
      "stateMutability": "nonpayable",
      "type": "function"
    },
    {
      "inputs": [
        {
          "internalType": "address",
          "name": "sender",
          "type": "address"
        },
        {
          "internalType": "address",
          "name": "recipient",
          "type": "address"
        },
        {
          "internalType": "uint256",
          "name": "amount",
          "type": "uint256"
        }
      ],
      "name": "transferFrom",
      "outputs": [
        {
          "internalType": "bool",
          "name": "",
          "type": "bool"
        }
      ],
      "stateMutability": "nonpayable",
      "type": "function"
    },
    {
      "inputs": [
        {
          "internalType": "address",
          "name": "newOwner",
          "type": "address"
        }
      ],
      "name": "transferOwnership",
      "outputs": [],
      "stateMutability": "nonpayable",
      "type": "function"
    },
    {
      "inputs": [],
      "name": "unlock",
      "outputs": [],
      "stateMutability": "nonpayable",
      "type": "function"
    }
  ],
  "bytecode": "0x60c060405260046080819052635245464960e01b60a09081526200002591908162000140565b50604080518082019091526004808252635245464960e01b6020909201918252620000539160059162000140565b506006805460ff191660129081179091556200007190600a620002fb565b62000081906301406f4062000313565b6007553480156200009157600080fd5b506200009d33620000f0565b600754336000818152600260209081526040918290208490559051928352909182917fddf252ad1be2c89b69c2b068fc378daa952ba7f163c4a11628f55a4df523b3ef910160405180910390a362000372565b600080546001600160a01b038381166001600160a01b0319831681178455604051919092169283917f8be0079c531659141344cd1fd0a4f28419497f9722a3daafe3b4186f6b6457e09190a35050565b8280546200014e9062000335565b90600052602060002090601f016020900481019282620001725760008555620001bd565b82601f106200018d57805160ff1916838001178555620001bd565b82800160010185558215620001bd579182015b82811115620001bd578251825591602001919060010190620001a0565b50620001cb929150620001cf565b5090565b5b80821115620001cb5760008155600101620001d0565b634e487b7160e01b600052601160045260246000fd5b600181815b808511156200023d578160001904821115620002215762000221620001e6565b808516156200022f57918102915b93841c939080029062000201565b509250929050565b6000826200025657506001620002f5565b816200026557506000620002f5565b81600181146200027e57600281146200028957620002a9565b6001915050620002f5565b60ff8411156200029d576200029d620001e6565b50506001821b620002f5565b5060208310610133831016604e8410600b8410161715620002ce575081810a620002f5565b620002da8383620001fc565b8060001904821115620002f157620002f1620001e6565b0290505b92915050565b60006200030c60ff84168362000245565b9392505050565b6000816000190483118215151615620003305762000330620001e6565b500290565b600181811c908216806200034a57607f821691505b602082108114156200036c57634e487b7160e01b600052602260045260246000fd5b50919050565b610de780620003826000396000f3fe608060405234801561001057600080fd5b506004361061010b5760003560e01c80638da5cb5b116100a2578063dd62ed3e11610071578063dd62ed3e1461020f578063e4f282ad14610248578063f2fde38b1461025b578063f83d08ba1461026e578063fb99b0161461027657600080fd5b80638da5cb5b146101d157806395d89b41146101ec578063a69df4b5146101f4578063a9059cbb146101fc57600080fd5b8063313ce567116100de578063313ce5671461017657806370a082311461018b578063715018a6146101b45780638ba27fa5146101be57600080fd5b806306fdde0314610110578063095ea7b31461012e57806318160ddd1461015157806323b872dd14610163575b600080fd5b610118610289565b6040516101259190610bbe565b60405180910390f35b61014161013c366004610c2a565b61031b565b6040519015158152602001610125565b6007545b604051908152602001610125565b610141610171366004610c54565b610331565b60065460405160ff9091168152602001610125565b610155610199366004610c90565b6001600160a01b031660009081526002602052604090205490565b6101bc61039a565b005b6101bc6101cc366004610c90565b6103ae565b6000546040516001600160a01b039091168152602001610125565b61011861045c565b6101bc61046b565b61014161020a366004610c2a565b610482565b61015561021d366004610cab565b6001600160a01b03918216600090815260036020908152604080832093909416825291909152205490565b610141610256366004610c90565b61048f565b6101bc610269366004610c90565b6104bc565b6101bc610535565b6101bc610284366004610c90565b610552565b60606004805461029890610cde565b80601f01602080910402602001604051908101604052809291908181526020018280546102c490610cde565b80156103115780601f106102e657610100808354040283529160200191610311565b820191906000526020600020905b8154815290600101906020018083116102f457829003601f168201915b5050505050905090565b60006103283384846105ea565b50600192915050565b600061033e8484846107d1565b610390843361038b85604051806060016040528060218152602001610d6b602191396001600160a01b038a1660009081526003602090815260408083203384529091529020549190610ad5565b6105ea565b5060019392505050565b6103a2610b01565b6103ac6000610b5b565b565b6103b6610b01565b6001600160a01b03811660009081526001602081905260409091205460ff1615151461043b5760405162461bcd60e51b815260206004820152602960248201527f4163636f756e7420697320616c7265616479206578636c756465642066726f6d604482015268081d1a19481b1a5cdd60ba1b60648201526084015b60405180910390fd5b6001600160a01b03166000908152600160205260409020805460ff19169055565b60606005805461029890610cde565b610473610b01565b6000805460ff60a01b19169055565b60006103283384846107d1565b6000610499610b01565b506001600160a01b03811660009081526001602052604090205460ff165b919050565b6104c4610b01565b6001600160a01b0381166105295760405162461bcd60e51b815260206004820152602660248201527f4f776e61626c653a206e6577206f776e657220697320746865207a65726f206160448201526564647265737360d01b6064820152608401610432565b61053281610b5b565b50565b61053d610b01565b6000805460ff60a01b1916600160a01b179055565b61055a610b01565b6001600160a01b03811660009081526001602052604090205460ff16156105c35760405162461bcd60e51b815260206004820152601a60248201527f4163636f756e7420697320616c726561647920696e206c6973740000000000006044820152606401610432565b6001600160a01b03166000908152600160208190526040909120805460ff19169091179055565b600054600160a01b900460ff161561063a5760405162461bcd60e51b8152602060048201526013602482015272151c985b9cd858dd1a5bdb88109b1bd8dad959606a1b6044820152606401610432565b6001600160a01b03831661069c5760405162461bcd60e51b8152602060048201526024808201527f42455032303a20617070726f76652066726f6d20746865207a65726f206164646044820152637265737360e01b6064820152608401610432565b6001600160a01b0382166106fd5760405162461bcd60e51b815260206004820152602260248201527f42455032303a20617070726f766520746f20746865207a65726f206164647265604482015261737360f01b6064820152608401610432565b6001600160a01b03831660009081526001602052604090205460ff16156107365760405162461bcd60e51b815260040161043290610d19565b6001600160a01b03821660009081526001602052604090205460ff161561076f5760405162461bcd60e51b815260040161043290610d19565b6001600160a01b0383811660008181526003602090815260408083209487168084529482529182902085905590518481527f8c5be1e5ebec7d5bd14f71427d1e84f3dd0314c0f7b2291e5b200ac8c7c3b92591015b60405180910390a3505050565b600054600160a01b900460ff16156108215760405162461bcd60e51b8152602060048201526013602482015272151c985b9cd858dd1a5bdb88109b1bd8dad959606a1b6044820152606401610432565b6001600160a01b0383166108855760405162461bcd60e51b815260206004820152602560248201527f42455032303a207472616e736665722066726f6d20746865207a65726f206164604482015264647265737360d81b6064820152608401610432565b6001600160a01b0382166108e75760405162461bcd60e51b815260206004820152602360248201527f42455032303a207472616e7366657220746f20746865207a65726f206164647260448201526265737360e81b6064820152608401610432565b6001600160a01b03831660009081526001602052604090205460ff16156109205760405162461bcd60e51b815260040161043290610d19565b6001600160a01b03821660009081526001602052604090205460ff16156109595760405162461bcd60e51b815260040161043290610d19565b600081116109bb5760405162461bcd60e51b815260206004820152602960248201527f5472616e7366657220616d6f756e74206d7573742062652067726561746572206044820152687468616e207a65726f60b81b6064820152608401610432565b6001600160a01b038316600090815260026020526040902054811115610a155760405162461bcd60e51b815260206004820152600f60248201526e42616c616e636520746f6f206c6f7760881b6044820152606401610432565b610a5281604051806060016040528060268152602001610d8c602691396001600160a01b0386166000908152600260205260409020549190610ad5565b6001600160a01b038085166000908152600260205260408082209390935590841681522054610a819082610bab565b6001600160a01b0380841660008181526002602052604090819020939093559151908516907fddf252ad1be2c89b69c2b068fc378daa952ba7f163c4a11628f55a4df523b3ef906107c49085815260200190565b60008184841115610af95760405162461bcd60e51b81526004016104329190610bbe565b505050900390565b6000546001600160a01b031633146103ac5760405162461bcd60e51b815260206004820181905260248201527f4f776e61626c653a2063616c6c6572206973206e6f7420746865206f776e65726044820152606401610432565b600080546001600160a01b038381166001600160a01b0319831681178455604051919092169283917f8be0079c531659141344cd1fd0a4f28419497f9722a3daafe3b4186f6b6457e09190a35050565b6000610bb78284610d44565b9392505050565b600060208083528351808285015260005b81811015610beb57858101830151858201604001528201610bcf565b81811115610bfd576000604083870101525b50601f01601f1916929092016040019392505050565b80356001600160a01b03811681146104b757600080fd5b60008060408385031215610c3d57600080fd5b610c4683610c13565b946020939093013593505050565b600080600060608486031215610c6957600080fd5b610c7284610c13565b9250610c8060208501610c13565b9150604084013590509250925092565b600060208284031215610ca257600080fd5b610bb782610c13565b60008060408385031215610cbe57600080fd5b610cc783610c13565b9150610cd560208401610c13565b90509250929050565b600181811c90821680610cf257607f821691505b60208210811415610d1357634e487b7160e01b600052602260045260246000fd5b50919050565b6020808252601190820152702a3930b739b0b1ba34b7b71022b93937b960791b604082015260600190565b60008219821115610d6557634e487b7160e01b600052601160045260246000fd5b50019056fe5472616e7366657220616d6f756e74206578636565647320616c6c6f77616e636542455032303a207472616e7366657220616d6f756e7420657863656564732062616c616e6365a2646970667358221220d3556da2d4a118a4879c31fa26ad9a40d84596bb49adffeb74d48bce8222f53a64736f6c63430008090033",
  "linkReferences": {},
  "deployedLinkReferences": {}
}