{
  "_format": "hh-sol-artifact-1",
  "contractName": "CriptoVision",
  "sourceName": "contracts/VSION.sol",
  "abi": [
    {
      "inputs": [],
      "stateMutability": "nonpayable",
      "type": "constructor"
    },
    {
      "anonymous": false,
      "inputs": [
        {
          "indexed": true,
          "internalType": "address",
          "name": "owner",
          "type": "address"
        },
        {
          "indexed": true,
          "internalType": "address",
          "name": "spender",
          "type": "address"
        },
        {
          "indexed": false,
          "internalType": "uint256",
          "name": "value",
          "type": "uint256"
        }
      ],
      "name": "Approval",
      "type": "event"
    },
    {
      "anonymous": false,
      "inputs": [
        {
          "indexed": true,
          "internalType": "address",
          "name": "from",
          "type": "address"
        },
        {
          "indexed": true,
          "internalType": "address",
          "name": "to",
          "type": "address"
        },
        {
          "indexed": false,
          "internalType": "uint256",
          "name": "value",
          "type": "uint256"
        }
      ],
      "name": "Transfer",
      "type": "event"
    },
    {
      "inputs": [
        {
          "internalType": "address",
          "name": "owner",
          "type": "address"
        },
        {
          "internalType": "address",
          "name": "spender",
          "type": "address"
        }
      ],
      "name": "allowance",
      "outputs": [
        {
          "internalType": "uint256",
          "name": "",
          "type": "uint256"
        }
      ],
      "stateMutability": "view",
      "type": "function"
    },
    {
      "inputs": [
        {
          "internalType": "address",
          "name": "spender",
          "type": "address"
        },
        {
          "internalType": "uint256",
          "name": "amount",
          "type": "uint256"
        }
      ],
      "name": "approve",
      "outputs": [
        {
          "internalType": "bool",
          "name": "",
          "type": "bool"
        }
      ],
      "stateMutability": "nonpayable",
      "type": "function"
    },
    {
      "inputs": [
        {
          "internalType": "address",
          "name": "account",
          "type": "address"
        }
      ],
      "name": "balanceOf",
      "outputs": [
        {
          "internalType": "uint256",
          "name": "",
          "type": "uint256"
        }
      ],
      "stateMutability": "view",
      "type": "function"
    },
    {
      "inputs": [
        {
          "internalType": "address",
          "name": "account",
          "type": "address"
        }
      ],
      "name": "checkBlackList",
      "outputs": [
        {
          "internalType": "bool",
          "name": "",
          "type": "bool"
        }
      ],
      "stateMutability": "view",
      "type": "function"
    },
    {
      "inputs": [],
      "name": "decimals",
      "outputs": [
        {
          "internalType": "uint8",
          "name": "",
          "type": "uint8"
        }
      ],
      "stateMutability": "view",
      "type": "function"
    },
    {
      "inputs": [
        {
          "internalType": "address",
          "name": "account",
          "type": "address"
        }
      ],
      "name": "excludeListed",
      "outputs": [],
      "stateMutability": "nonpayable",
      "type": "function"
    },
    {
      "inputs": [
        {
          "internalType": "address",
          "name": "account",
          "type": "address"
        }
      ],
      "name": "includeListed",
      "outputs": [],
      "stateMutability": "nonpayable",
      "type": "function"
    },
    {
      "inputs": [],
      "name": "lock",
      "outputs": [],
      "stateMutability": "nonpayable",
      "type": "function"
    },
    {
      "inputs": [],
      "name": "name",
      "outputs": [
        {
          "internalType": "string",
          "name": "",
          "type": "string"
        }
      ],
      "stateMutability": "view",
      "type": "function"
    },
    {
      "inputs": [],
      "name": "owner",
      "outputs": [
        {
          "internalType": "address",
          "name": "",
          "type": "address"
        }
      ],
      "stateMutability": "view",
      "type": "function"
    },
    {
      "inputs": [],
      "name": "symbol",
      "outputs": [
        {
          "internalType": "string",
          "name": "",
          "type": "string"
        }
      ],
      "stateMutability": "view",
      "type": "function"
    },
    {
      "inputs": [],
      "name": "totalSupply",
      "outputs": [
        {
          "internalType": "uint256",
          "name": "",
          "type": "uint256"
        }
      ],
      "stateMutability": "view",
      "type": "function"
    },
    {
      "inputs": [
        {
          "internalType": "address",
          "name": "recipient",
          "type": "address"
        },
        {
          "internalType": "uint256",
          "name": "amount",
          "type": "uint256"
        }
      ],
      "name": "transfer",
      "outputs": [
        {
          "internalType": "bool",
          "name": "",
          "type": "bool"
        }
      ],
      "stateMutability": "nonpayable",
      "type": "function"
    },
    {
      "inputs": [
        {
          "internalType": "address",
          "name": "sender",
          "type": "address"
        },
        {
          "internalType": "address",
          "name": "recipient",
          "type": "address"
        },
        {
          "internalType": "uint256",
          "name": "amount",
          "type": "uint256"
        }
      ],
      "name": "transferFrom",
      "outputs": [
        {
          "internalType": "bool",
          "name": "",
          "type": "bool"
        }
      ],
      "stateMutability": "nonpayable",
      "type": "function"
    },
    {
      "inputs": [],
      "name": "unlock",
      "outputs": [],
      "stateMutability": "nonpayable",
      "type": "function"
    }
  ],
  "bytecode": "0x60c0604052600c60808190526b21a924a82a27ab24a9a4a7a760a11b60a09081526200002f916005919062000101565b50604080518082019091526005808252642b29a4a7a760d91b60209092019182526200005e9160069162000101565b506007805460ff191660089081179091556200007c90600a620002bc565b6200008c90633b9aca00620002d4565b6008553480156200009c57600080fd5b50600080546001600160a01b031916339081178255600854818352600360209081526040938490208290559251908152909182917fddf252ad1be2c89b69c2b068fc378daa952ba7f163c4a11628f55a4df523b3ef910160405180910390a362000333565b8280546200010f90620002f6565b90600052602060002090601f0160209004810192826200013357600085556200017e565b82601f106200014e57805160ff19168380011785556200017e565b828001600101855582156200017e579182015b828111156200017e57825182559160200191906001019062000161565b506200018c92915062000190565b5090565b5b808211156200018c576000815560010162000191565b634e487b7160e01b600052601160045260246000fd5b600181815b80851115620001fe578160001904821115620001e257620001e2620001a7565b80851615620001f057918102915b93841c9390800290620001c2565b509250929050565b6000826200021757506001620002b6565b816200022657506000620002b6565b81600181146200023f57600281146200024a576200026a565b6001915050620002b6565b60ff8411156200025e576200025e620001a7565b50506001821b620002b6565b5060208310610133831016604e8410600b84101617156200028f575081810a620002b6565b6200029b8383620001bd565b8060001904821115620002b257620002b2620001a7565b0290505b92915050565b6000620002cd60ff84168362000206565b9392505050565b6000816000190483118215151615620002f157620002f1620001a7565b500290565b600181811c908216806200030b57607f821691505b602082108114156200032d57634e487b7160e01b600052602260045260246000fd5b50919050565b610da480620003436000396000f3fe608060405234801561001057600080fd5b50600436106100f55760003560e01c80638da5cb5b11610097578063dd62ed3e11610066578063dd62ed3e146101f1578063e4f282ad1461022a578063f83d08ba1461023d578063fb99b0161461024557600080fd5b80638da5cb5b146101b357806395d89b41146101ce578063a69df4b5146101d6578063a9059cbb146101de57600080fd5b806323b872dd116100d357806323b872dd1461014d578063313ce5671461016057806370a08231146101755780638ba27fa51461019e57600080fd5b806306fdde03146100fa578063095ea7b31461011857806318160ddd1461013b575b600080fd5b610102610258565b60405161010f9190610b27565b60405180910390f35b61012b610126366004610b93565b6102ea565b604051901515815260200161010f565b6008545b60405190815260200161010f565b61012b61015b366004610bbd565b610300565b60075460405160ff909116815260200161010f565b61013f610183366004610bf9565b6001600160a01b031660009081526003602052604090205490565b6101b16101ac366004610bf9565b610369565b005b6000546040516001600160a01b03909116815260200161010f565b61010261043c565b6101b161044b565b61012b6101ec366004610b93565b610484565b61013f6101ff366004610c14565b6001600160a01b03918216600090815260046020908152604080832093909416825291909152205490565b61012b610238366004610bf9565b610491565b6101b16104df565b6101b1610253366004610bf9565b61051e565b60606005805461026790610c47565b80601f016020809104026020016040519081016040528092919081815260200182805461029390610c47565b80156102e05780601f106102b5576101008083540402835291602001916102e0565b820191906000526020600020905b8154815290600101906020018083116102c357829003601f168201915b5050505050905090565b60006102f73384846105d5565b50600192915050565b600061030d8484846107bc565b61035f843361035a85604051806060016040528060218152602001610d28602191396001600160a01b038a1660009081526004602090815260408083203384529091529020549190610a87565b6105d5565b5060019392505050565b6000546001600160a01b0316331461039c5760405162461bcd60e51b815260040161039390610c82565b60405180910390fd5b6001600160a01b03811660009081526002602052604090205460ff16151560011461041b5760405162461bcd60e51b815260206004820152602960248201527f4163636f756e7420697320616c7265616479206578636c756465642066726f6d604482015268081d1a19481b1a5cdd60ba1b6064820152608401610393565b6001600160a01b03166000908152600260205260409020805460ff19169055565b60606006805461026790610c47565b6000546001600160a01b031633146104755760405162461bcd60e51b815260040161039390610c82565b6001805460ff60a01b19169055565b60006102f73384846107bc565b600080546001600160a01b031633146104bc5760405162461bcd60e51b815260040161039390610c82565b506001600160a01b03811660009081526002602052604090205460ff165b919050565b6000546001600160a01b031633146105095760405162461bcd60e51b815260040161039390610c82565b6001805460ff60a01b1916600160a01b179055565b6000546001600160a01b031633146105485760405162461bcd60e51b815260040161039390610c82565b6001600160a01b03811660009081526002602052604090205460ff16156105b15760405162461bcd60e51b815260206004820152601a60248201527f4163636f756e7420697320616c726561647920696e206c6973740000000000006044820152606401610393565b6001600160a01b03166000908152600260205260409020805460ff19166001179055565b600154600160a01b900460ff16156106255760405162461bcd60e51b8152602060048201526013602482015272151c985b9cd858dd1a5bdb88109b1bd8dad959606a1b6044820152606401610393565b6001600160a01b0383166106875760405162461bcd60e51b8152602060048201526024808201527f42455032303a20617070726f76652066726f6d20746865207a65726f206164646044820152637265737360e01b6064820152608401610393565b6001600160a01b0382166106e85760405162461bcd60e51b815260206004820152602260248201527f42455032303a20617070726f766520746f20746865207a65726f206164647265604482015261737360f01b6064820152608401610393565b6001600160a01b03831660009081526002602052604090205460ff16156107215760405162461bcd60e51b815260040161039390610cb7565b6001600160a01b03821660009081526002602052604090205460ff161561075a5760405162461bcd60e51b815260040161039390610cb7565b6001600160a01b0383811660008181526004602090815260408083209487168084529482529182902085905590518481527f8c5be1e5ebec7d5bd14f71427d1e84f3dd0314c0f7b2291e5b200ac8c7c3b92591015b60405180910390a3505050565b600154600160a01b900460ff161561080c5760405162461bcd60e51b8152602060048201526013602482015272151c985b9cd858dd1a5bdb88109b1bd8dad959606a1b6044820152606401610393565b6001600160a01b0383166108705760405162461bcd60e51b815260206004820152602560248201527f42455032303a207472616e736665722066726f6d20746865207a65726f206164604482015264647265737360d81b6064820152608401610393565b6001600160a01b0382166108d25760405162461bcd60e51b815260206004820152602360248201527f42455032303a207472616e7366657220746f20746865207a65726f206164647260448201526265737360e81b6064820152608401610393565b6001600160a01b03831660009081526002602052604090205460ff161561090b5760405162461bcd60e51b815260040161039390610cb7565b6000811161096d5760405162461bcd60e51b815260206004820152602960248201527f5472616e7366657220616d6f756e74206d7573742062652067726561746572206044820152687468616e207a65726f60b81b6064820152608401610393565b6001600160a01b0383166000908152600360205260409020548111156109c75760405162461bcd60e51b815260206004820152600f60248201526e42616c616e636520746f6f206c6f7760881b6044820152606401610393565b610a0481604051806060016040528060268152602001610d49602691396001600160a01b0386166000908152600360205260409020549190610a87565b6001600160a01b038085166000908152600360205260408082209390935590841681522054610a339082610ac1565b6001600160a01b0380841660008181526003602052604090819020939093559151908516907fddf252ad1be2c89b69c2b068fc378daa952ba7f163c4a11628f55a4df523b3ef906107af9085815260200190565b60008184841115610aab5760405162461bcd60e51b81526004016103939190610b27565b506000610ab88486610cf8565b95945050505050565b600080610ace8385610d0f565b905083811015610b205760405162461bcd60e51b815260206004820152601b60248201527f536166654d6174683a206164646974696f6e206f766572666c6f7700000000006044820152606401610393565b9392505050565b600060208083528351808285015260005b81811015610b5457858101830151858201604001528201610b38565b81811115610b66576000604083870101525b50601f01601f1916929092016040019392505050565b80356001600160a01b03811681146104da57600080fd5b60008060408385031215610ba657600080fd5b610baf83610b7c565b946020939093013593505050565b600080600060608486031215610bd257600080fd5b610bdb84610b7c565b9250610be960208501610b7c565b9150604084013590509250925092565b600060208284031215610c0b57600080fd5b610b2082610b7c565b60008060408385031215610c2757600080fd5b610c3083610b7c565b9150610c3e60208401610b7c565b90509250929050565b600181811c90821680610c5b57607f821691505b60208210811415610c7c57634e487b7160e01b600052602260045260246000fd5b50919050565b6020808252818101527f4f776e61626c653a2063616c6c6572206973206e6f7420746865206f776e6572604082015260600190565b6020808252601190820152702a3930b739b0b1ba34b7b71022b93937b960791b604082015260600190565b634e487b7160e01b600052601160045260246000fd5b600082821015610d0a57610d0a610ce2565b500390565b60008219821115610d2257610d22610ce2565b50019056fe5472616e7366657220616d6f756e74206578636565647320616c6c6f77616e636542455032303a207472616e7366657220616d6f756e7420657863656564732062616c616e6365a2646970667358221220507d34aa053fb0de27df475d504ca43865ce224c8ccb5bf96c007e0b8f3bf37e64736f6c63430008090033",
  "linkReferences": {},
  "deployedLinkReferences": {}
}