{"contracts/refisell.sol":{"REFFISELL":{"abi":[{"inputs":[{"internalType":"address","name":"_criptovision","type":"address"},{"internalType":"address","name":"_refi","type":"address"},{"internalType":"address","name":"_walletDindon","type":"address"}],"stateMutability":"nonpayable","type":"constructor"},{"anonymous":false,"inputs":[{"indexed":false,"internalType":"address","name":"refer","type":"address"},{"indexed":false,"internalType":"uint256","name":"_amount","type":"uint256"}],"name":"AirdopReferal","type":"event"},{"anonymous":false,"inputs":[{"indexed":true,"internalType":"address","name":"previousOwner","type":"address"},{"indexed":true,"internalType":"address","name":"newOwner","type":"address"}],"name":"OwnershipTransferred","type":"event"},{"anonymous":false,"inputs":[{"indexed":false,"internalType":"address","name":"buyer","type":"address"},{"indexed":false,"internalType":"uint256","name":"_amount","type":"uint256"}],"name":"ReffiBuyed","type":"event"},{"inputs":[{"internalType":"uint256","name":"_phase","type":"uint256"},{"internalType":"uint256","name":"_price","type":"uint256"},{"internalType":"uint256","name":"_amount","type":"uint256"}],"name":"AddPhase","outputs":[],"stateMutability":"nonpayable","type":"function"},{"inputs":[{"internalType":"address","name":"_address","type":"address"}],"name":"AddTokenAccept","outputs":[],"stateMutability":"nonpayable","type":"function"},{"inputs":[{"internalType":"address","name":"_address","type":"address"}],"name":"AddWhiteList","outputs":[],"stateMutability":"nonpayable","type":"function"},{"inputs":[{"internalType":"address","name":"_token","type":"address"},{"internalType":"uint256","name":"_amount","type":"uint256"}],"name":"BuyReffi","outputs":[],"stateMutability":"nonpayable","type":"function"},{"inputs":[],"name":"ChangeActivateWhiteList","outputs":[],"stateMutability":"nonpayable","type":"function"},{"inputs":[{"internalType":"uint256","name":"_number","type":"uint256"}],"name":"ChangePhase","outputs":[],"stateMutability":"nonpayable","type":"function"},{"inputs":[{"internalType":"address","name":"_address","type":"address"}],"name":"ChangeWalletLiquidity","outputs":[],"stateMutability":"nonpayable","type":"function"},{"inputs":[],"name":"PhaseSelling","outputs":[{"internalType":"uint256","name":"","type":"uint256"}],"stateMutability":"view","type":"function"},{"inputs":[{"internalType":"address","name":"_token","type":"address"}],"name":"RecoverTokens","outputs":[],"stateMutability":"nonpayable","type":"function"},{"inputs":[],"name":"TotalSelling","outputs":[{"internalType":"uint256","name":"","type":"uint256"}],"stateMutability":"view","type":"function"},{"inputs":[],"name":"addPhases","outputs":[],"stateMutability":"nonpayable","type":"function"},{"inputs":[],"name":"getPhase","outputs":[{"internalType":"uint256","name":"","type":"uint256"}],"stateMutability":"view","type":"function"},{"inputs":[],"name":"getPhaseCost","outputs":[{"internalType":"uint256","name":"","type":"uint256"}],"stateMutability":"view","type":"function"},{"inputs":[],"name":"getPhasePrice","outputs":[{"internalType":"uint256","name":"","type":"uint256"}],"stateMutability":"view","type":"function"},{"inputs":[],"name":"lock","outputs":[],"stateMutability":"nonpayable","type":"function"},{"inputs":[],"name":"owner","outputs":[{"internalType":"address","name":"","type":"address"}],"stateMutability":"view","type":"function"},{"inputs":[],"name":"renounceOwnership","outputs":[],"stateMutability":"nonpayable","type":"function"},{"inputs":[{"internalType":"address","name":"newOwner","type":"address"}],"name":"transferOwnership","outputs":[],"stateMutability":"nonpayable","type":"function"},{"inputs":[],"name":"unlock","outputs":[],"stateMutability":"nonpayable","type":"function"}],"evm":{"bytecode":{"linkReferences":{},"object":"6080604052600160025534801561001557600080fd5b50604051620014223803806200142283398101604081905261003691610332565b6001600055610044336102c4565b60048054610100600160a81b0319166101006001600160a01b0393841602178155600780546001600160a01b0319908116948416949094179055600880549093169390911692909217905560408051808201825267016345785d8a000081526a04f7d1e992e034fdc00000602080830191825260016000818152600c80845294517fd421a5181c571bba3f01190c922c3b2a896fc1d84e86c9f17ac10e67ebef8b5c5592517fd421a5181c571bba3f01190c922c3b2a896fc1d84e86c9f17ac10e67ebef8b5d5584518086018652670214e8348c4f000081526a022bdd88fed9efc6a000008184018181526002865286855291517f5d6016397a73f5e079297ac5a36fef17b4d9c3831618e63ab105738020ddd7205590517f5d6016397a73f5e079297ac5a36fef17b4d9c3831618e63ab105738020ddd72155855180870187526702c68af0bb14000081528084018281526003865286855290517fc0da782485e77ae272268ae0a3ff44c1552ecb60b3743924de17a815e0a3cfd755517fc0da782485e77ae272268ae0a3ff44c1552ecb60b3743924de17a815e0a3cfd85585518087019096526703782dace9d90000865285830190815295835292815292517f5b84bb9e0f5aa9cc45a8bb66468db5d4816d1e75ff86b5e1f1dd8d144dab80975592517f5b84bb9e0f5aa9cc45a8bb66468db5d4816d1e75ff86b5e1f1dd8d144dab809855600a9091527fb0775d57c3eeb070f58d410e36e9ff396813a5d76997d9a91bdf10f0798296f0805460ff19908116831790915573e9e7cea3dedca5984780bafc599bd69add087d569092527f588f8bca8b2048a19ea94cc48f893d0bde00a1faadb2e5327aa9408686f2bdf28054909216179055610375565b600180546001600160a01b038381166001600160a01b0319831681179093556040519116919082907f8be0079c531659141344cd1fd0a4f28419497f9722a3daafe3b4186f6b6457e090600090a35050565b80516001600160a01b038116811461032d57600080fd5b919050565b60008060006060848603121561034757600080fd5b61035084610316565b925061035e60208501610316565b915061036c60408501610316565b90509250925092565b61109d80620003856000396000f3fe608060405234801561001057600080fd5b50600436106101215760003560e01c8063a69df4b5116100ad578063eced028011610071578063eced0280146103d9578063f2fde38b146103e1578063f83d08ba146103f4578063f8d5f409146103fc578063f9b496401461040f57600080fd5b8063a69df4b5146101d8578063c362d20c146101e0578063cf922b1e146101e9578063d3afd6ac146101fc578063e7cc0f79146103bf57600080fd5b80635a53bf31116100f45780635a53bf31146101875780636f6a5d061461019a578063715018a6146101a25780638da5cb5b146101aa578063939edd0e146101c557600080fd5b8063120005ae146101265780631c5f80241461014c5780632fea6ac414610161578063478b0f8714610174575b600080fd5b6002546000908152600c60205260409020545b6040519081526020015b60405180910390f35b61015f61015a366004610f00565b610418565b005b61015f61016f366004610f48565b61044e565b61015f610182366004610f48565b61047a565b61015f610195366004610f63565b61059c565b61015f610a4d565b61015f610a76565b6001546040516001600160a01b039091168152602001610143565b61015f6101d3366004610f48565b610a8a565b61015f610aba565b61013960055481565b61015f6101f7366004610f8d565b610ace565b61015f60408051808201825267016345785d8a000081526a04f7d1e992e034fdc00000602080830191825260016000908152600c80835293517fd421a5181c571bba3f01190c922c3b2a896fc1d84e86c9f17ac10e67ebef8b5c5591517fd421a5181c571bba3f01190c922c3b2a896fc1d84e86c9f17ac10e67ebef8b5d5583518085018552670214e8348c4f000081526a022bdd88fed9efc6a000008183018181526002855285845291517f5d6016397a73f5e079297ac5a36fef17b4d9c3831618e63ab105738020ddd7205590517f5d6016397a73f5e079297ac5a36fef17b4d9c3831618e63ab105738020ddd72155845180860186526702c68af0bb14000081528083018281526003855285845290517fc0da782485e77ae272268ae0a3ff44c1552ecb60b3743924de17a815e0a3cfd755517fc0da782485e77ae272268ae0a3ff44c1552ecb60b3743924de17a815e0a3cfd85584518086019095526703782dace9d90000855284820190815260049092529190915290517f5b84bb9e0f5aa9cc45a8bb66468db5d4816d1e75ff86b5e1f1dd8d144dab809755517f5b84bb9e0f5aa9cc45a8bb66468db5d4816d1e75ff86b5e1f1dd8d144dab809855565b6002546000908152600c6020526040902060010154610139565b600254610139565b61015f6103ef366004610f48565b610ae0565b61015f610b59565b61015f61040a366004610f48565b610b70565b61013960065481565b610420610b9c565b60408051808201825292835260208084019283526000948552600c9052909220905181559051600190910155565b610456610b9c565b6001600160a01b03166000908152600a60205260409020805460ff19166001179055565b610482610b9c565b806001600160a01b031663a9059cbb6104a36001546001600160a01b031690565b6040516370a0823160e01b81523060048201526001600160a01b038516906370a082319060240160206040518083038186803b1580156104e257600080fd5b505afa1580156104f6573d6000803e3d6000fd5b505050506040513d601f19601f8201168201806040525081019061051a9190610fa6565b6040516001600160e01b031960e085901b1681526001600160a01b0390921660048301526024820152604401602060405180830381600087803b15801561056057600080fd5b505af1158015610574573d6000803e3d6000fd5b505050506040513d601f19601f820116820180604052508101906105989190610fbf565b5050565b6105a4610bf6565b60045460ff16156105ec5760405162461bcd60e51b815260206004820152600d60248201526c56656e7461205061757361646160981b60448201526064015b60405180910390fd5b6001600160a01b0382166000908152600a602052604090205460ff166106445760405162461bcd60e51b815260206004820152600d60248201526c24b73b30b634b2102a37b5b2b760991b60448201526064016105e3565b6002546000908152600c6020908152604080832081518083019092528054825260010154918101919091529061067a3384610c50565b9050600061068c338460000151610df1565b600454909150600160a81b900460ff1615610700573360009081526009602052604090205460ff166107005760405162461bcd60e51b815260206004820152601860248201527f596f7520617265206e6f7420696e2057686974654c697374000000000000000060448201526064016105e3565b6040516370a0823160e01b815233600482015284906001600160a01b038716906370a082319060240160206040518083038186803b15801561074157600080fd5b505afa158015610755573d6000803e3d6000fd5b505050506040513d601f19601f820116820180604052508101906107799190610fa6565b10156107b85760405162461bcd60e51b815260206004820152600e60248201526d42616c616e636520546f204c6f7760901b60448201526064016105e3565b60006107c48286610ff7565b9050600081846107d5606483610ff7565b6107df9190611019565b6107e99190611038565b6107fb90670de0b6b3a7640000611019565b9050806005600082825461080f9190611038565b9250508190555085600660008282546108289190611038565b90915550506005546020860151141561086e5760016002600082825461084e9190611038565b925050819055506000600560008282546108689190611038565b90915550505b600480546040516323b872dd60e01b8152339281019290925261010090046001600160a01b039081166024830152604482018890528816906323b872dd90606401602060405180830381600087803b1580156108c957600080fd5b505af11580156108dd573d6000803e3d6000fd5b505050506040513d601f19601f820116820180604052508101906109019190610fbf565b6109415760405162461bcd60e51b815260206004820152601160248201527022b93937b91034b7102a3930b739b332b960791b60448201526064016105e3565b60075460405163a9059cbb60e01b8152336004820152602481018390526001600160a01b039091169063a9059cbb90604401602060405180830381600087803b15801561098d57600080fd5b505af11580156109a1573d6000803e3d6000fd5b505050506040513d601f19601f820116820180604052508101906109c59190610fbf565b610a055760405162461bcd60e51b815260206004820152601160248201527022b93937b91034b7102a3930b739b332b960791b60448201526064016105e3565b60408051338152602081018490527f1ecc62d178ab4ffe6884f1463e2f3f563fa4090ef4f4a9c7c2682d9aa81abd20910160405180910390a150505050506105986001600055565b610a55610b9c565b6004805460ff60a81b198116600160a81b9182900460ff1615909102179055565b610a7e610b9c565b610a886000610e9b565b565b610a92610b9c565b600480546001600160a01b0390921661010002610100600160a81b0319909216919091179055565b610ac2610b9c565b6004805460ff19169055565b610ad6610b9c565b6002556000600555565b610ae8610b9c565b6001600160a01b038116610b4d5760405162461bcd60e51b815260206004820152602660248201527f4f776e61626c653a206e6577206f776e657220697320746865207a65726f206160448201526564647265737360d01b60648201526084016105e3565b610b5681610e9b565b50565b610b61610b9c565b6004805460ff19166001179055565b610b78610b9c565b6001600160a01b03166000908152600960205260409020805460ff19166001179055565b6001546001600160a01b03163314610a885760405162461bcd60e51b815260206004820181905260248201527f4f776e61626c653a2063616c6c6572206973206e6f7420746865206f776e657260448201526064016105e3565b60026000541415610c495760405162461bcd60e51b815260206004820152601f60248201527f5265656e7472616e637947756172643a207265656e7472616e742063616c6c0060448201526064016105e3565b6002600055565b6008546040516370a0823160e01b81526001600160a01b03848116600483015260009283929116906370a082319060240160206040518083038186803b158015610c9957600080fd5b505afa158015610cad573d6000803e3d6000fd5b505050506040513d601f19601f82011682018060405250810190610cd19190610fa6565b9050610ce16305f5e10082610ff7565b9050610cf5670de0b6b3a764000084610ff7565b925060006001821115610daa576203d0908210158015610d16575060328410155b15610d1f575060195b6207a1208210158015610d33575060648410155b15610d3c575060325b6207a1218210158015610d525750620f42408211155b8015610d6057506101f48410155b15610d69575060645b620f42408210158015610d7e57506103e88410155b15610d87575060965b620f42408210158015610d9c57506113888410155b15610da5575060c85b610de9565b60328410610db6575060195b60648410610dc2575060325b6101f48410610dcf575060645b6103e88410610ddc575060965b6113888410610de9575060c85b949350505050565b6008546040516370a0823160e01b81526001600160a01b03848116600483015260009283929116906370a082319060240160206040518083038186803b158015610e3a57600080fd5b505afa158015610e4e573d6000803e3d6000fd5b505050506040513d601f19601f82011682018060405250810190610e729190610fa6565b9050826305f5e100821115610de957610e928466b1a2bc2ec50000610eed565b95945050505050565b600180546001600160a01b038381166001600160a01b0319831681179093556040519116919082907f8be0079c531659141344cd1fd0a4f28419497f9722a3daafe3b4186f6b6457e090600090a35050565b6000610ef98284611050565b9392505050565b600080600060608486031215610f1557600080fd5b505081359360208301359350604090920135919050565b80356001600160a01b0381168114610f4357600080fd5b919050565b600060208284031215610f5a57600080fd5b610ef982610f2c565b60008060408385031215610f7657600080fd5b610f7f83610f2c565b946020939093013593505050565b600060208284031215610f9f57600080fd5b5035919050565b600060208284031215610fb857600080fd5b5051919050565b600060208284031215610fd157600080fd5b81518015158114610ef957600080fd5b634e487b7160e01b600052601160045260246000fd5b60008261101457634e487b7160e01b600052601260045260246000fd5b500490565b600081600019048311821515161561103357611033610fe1565b500290565b6000821982111561104b5761104b610fe1565b500190565b60008282101561106257611062610fe1565b50039056fea2646970667358221220e8d1cff1ecb7c597dd14c3fb66b36256beeb69c234e4b548a93bb5a94eb5a58b64736f6c63430008090033","opcodes":"PUSH1 0x80 PUSH1 0x40 MSTORE PUSH1 0x1 PUSH1 0x2 SSTORE CALLVALUE DUP1 ISZERO PUSH2 0x15 JUMPI PUSH1 0x0 DUP1 REVERT JUMPDEST POP PUSH1 0x40 MLOAD PUSH3 0x1422 CODESIZE SUB DUP1 PUSH3 0x1422 DUP4 CODECOPY DUP2 ADD PUSH1 0x40 DUP2 SWAP1 MSTORE PUSH2 0x36 SWAP2 PUSH2 0x332 JUMP JUMPDEST PUSH1 0x1 PUSH1 0x0 SSTORE PUSH2 0x44 CALLER PUSH2 0x2C4 JUMP JUMPDEST PUSH1 0x4 DUP1 SLOAD PUSH2 0x100 PUSH1 0x1 PUSH1 0xA8 SHL SUB NOT AND PUSH2 0x100 PUSH1 0x1 PUSH1 0x1 PUSH1 0xA0 SHL SUB SWAP4 DUP5 AND MUL OR DUP2 SSTORE PUSH1 0x7 DUP1 SLOAD PUSH1 0x1 PUSH1 0x1 PUSH1 0xA0 SHL SUB NOT SWAP1 DUP2 AND SWAP5 DUP5 AND SWAP5 SWAP1 SWAP5 OR SWAP1 SSTORE PUSH1 0x8 DUP1 SLOAD SWAP1 SWAP4 AND SWAP4 SWAP1 SWAP2 AND SWAP3 SWAP1 SWAP3 OR SWAP1 SSTORE PUSH1 0x40 DUP1 MLOAD DUP1 DUP3 ADD DUP3 MSTORE PUSH8 0x16345785D8A0000 DUP2 MSTORE PUSH11 0x4F7D1E992E034FDC00000 PUSH1 0x20 DUP1 DUP4 ADD SWAP2 DUP3 MSTORE PUSH1 0x1 PUSH1 0x0 DUP2 DUP2 MSTORE PUSH1 0xC DUP1 DUP5 MSTORE SWAP5 MLOAD PUSH32 0xD421A5181C571BBA3F01190C922C3B2A896FC1D84E86C9F17AC10E67EBEF8B5C SSTORE SWAP3 MLOAD PUSH32 0xD421A5181C571BBA3F01190C922C3B2A896FC1D84E86C9F17AC10E67EBEF8B5D SSTORE DUP5 MLOAD DUP1 DUP7 ADD DUP7 MSTORE PUSH8 0x214E8348C4F0000 DUP2 MSTORE PUSH11 0x22BDD88FED9EFC6A00000 DUP2 DUP5 ADD DUP2 DUP2 MSTORE PUSH1 0x2 DUP7 MSTORE DUP7 DUP6 MSTORE SWAP2 MLOAD PUSH32 0x5D6016397A73F5E079297AC5A36FEF17B4D9C3831618E63AB105738020DDD720 SSTORE SWAP1 MLOAD PUSH32 0x5D6016397A73F5E079297AC5A36FEF17B4D9C3831618E63AB105738020DDD721 SSTORE DUP6 MLOAD DUP1 DUP8 ADD DUP8 MSTORE PUSH8 0x2C68AF0BB140000 DUP2 MSTORE DUP1 DUP5 ADD DUP3 DUP2 MSTORE PUSH1 0x3 DUP7 MSTORE DUP7 DUP6 MSTORE SWAP1 MLOAD PUSH32 0xC0DA782485E77AE272268AE0A3FF44C1552ECB60B3743924DE17A815E0A3CFD7 SSTORE MLOAD PUSH32 0xC0DA782485E77AE272268AE0A3FF44C1552ECB60B3743924DE17A815E0A3CFD8 SSTORE DUP6 MLOAD DUP1 DUP8 ADD SWAP1 SWAP7 MSTORE PUSH8 0x3782DACE9D90000 DUP7 MSTORE DUP6 DUP4 ADD SWAP1 DUP2 MSTORE SWAP6 DUP4 MSTORE SWAP3 DUP2 MSTORE SWAP3 MLOAD PUSH32 0x5B84BB9E0F5AA9CC45A8BB66468DB5D4816D1E75FF86B5E1F1DD8D144DAB8097 SSTORE SWAP3 MLOAD PUSH32 0x5B84BB9E0F5AA9CC45A8BB66468DB5D4816D1E75FF86B5E1F1DD8D144DAB8098 SSTORE PUSH1 0xA SWAP1 SWAP2 MSTORE PUSH32 0xB0775D57C3EEB070F58D410E36E9FF396813A5D76997D9A91BDF10F0798296F0 DUP1 SLOAD PUSH1 0xFF NOT SWAP1 DUP2 AND DUP4 OR SWAP1 SWAP2 SSTORE PUSH20 0xE9E7CEA3DEDCA5984780BAFC599BD69ADD087D56 SWAP1 SWAP3 MSTORE PUSH32 0x588F8BCA8B2048A19EA94CC48F893D0BDE00A1FAADB2E5327AA9408686F2BDF2 DUP1 SLOAD SWAP1 SWAP3 AND OR SWAP1 SSTORE PUSH2 0x375 JUMP JUMPDEST PUSH1 0x1 DUP1 SLOAD PUSH1 0x1 PUSH1 0x1 PUSH1 0xA0 SHL SUB DUP4 DUP2 AND PUSH1 0x1 PUSH1 0x1 PUSH1 0xA0 SHL SUB NOT DUP4 AND DUP2 OR SWAP1 SWAP4 SSTORE PUSH1 0x40 MLOAD SWAP2 AND SWAP2 SWAP1 DUP3 SWAP1 PUSH32 0x8BE0079C531659141344CD1FD0A4F28419497F9722A3DAAFE3B4186F6B6457E0 SWAP1 PUSH1 0x0 SWAP1 LOG3 POP POP JUMP JUMPDEST DUP1 MLOAD PUSH1 0x1 PUSH1 0x1 PUSH1 0xA0 SHL SUB DUP2 AND DUP2 EQ PUSH2 0x32D JUMPI PUSH1 0x0 DUP1 REVERT JUMPDEST SWAP2 SWAP1 POP JUMP JUMPDEST PUSH1 0x0 DUP1 PUSH1 0x0 PUSH1 0x60 DUP5 DUP7 SUB SLT ISZERO PUSH2 0x347 JUMPI PUSH1 0x0 DUP1 REVERT JUMPDEST PUSH2 0x350 DUP5 PUSH2 0x316 JUMP JUMPDEST SWAP3 POP PUSH2 0x35E PUSH1 0x20 DUP6 ADD PUSH2 0x316 JUMP JUMPDEST SWAP2 POP PUSH2 0x36C PUSH1 0x40 DUP6 ADD PUSH2 0x316 JUMP JUMPDEST SWAP1 POP SWAP3 POP SWAP3 POP SWAP3 JUMP JUMPDEST PUSH2 0x109D DUP1 PUSH3 0x385 PUSH1 0x0 CODECOPY PUSH1 0x0 RETURN INVALID PUSH1 0x80 PUSH1 0x40 MSTORE CALLVALUE DUP1 ISZERO PUSH2 0x10 JUMPI PUSH1 0x0 DUP1 REVERT JUMPDEST POP PUSH1 0x4 CALLDATASIZE LT PUSH2 0x121 JUMPI PUSH1 0x0 CALLDATALOAD PUSH1 0xE0 SHR DUP1 PUSH4 0xA69DF4B5 GT PUSH2 0xAD JUMPI DUP1 PUSH4 0xECED0280 GT PUSH2 0x71 JUMPI DUP1 PUSH4 0xECED0280 EQ PUSH2 0x3D9 JUMPI DUP1 PUSH4 0xF2FDE38B EQ PUSH2 0x3E1 JUMPI DUP1 PUSH4 0xF83D08BA EQ PUSH2 0x3F4 JUMPI DUP1 PUSH4 0xF8D5F409 EQ PUSH2 0x3FC JUMPI DUP1 PUSH4 0xF9B49640 EQ PUSH2 0x40F JUMPI PUSH1 0x0 DUP1 REVERT JUMPDEST DUP1 PUSH4 0xA69DF4B5 EQ PUSH2 0x1D8 JUMPI DUP1 PUSH4 0xC362D20C EQ PUSH2 0x1E0 JUMPI DUP1 PUSH4 0xCF922B1E EQ PUSH2 0x1E9 JUMPI DUP1 PUSH4 0xD3AFD6AC EQ PUSH2 0x1FC JUMPI DUP1 PUSH4 0xE7CC0F79 EQ PUSH2 0x3BF JUMPI PUSH1 0x0 DUP1 REVERT JUMPDEST DUP1 PUSH4 0x5A53BF31 GT PUSH2 0xF4 JUMPI DUP1 PUSH4 0x5A53BF31 EQ PUSH2 0x187 JUMPI DUP1 PUSH4 0x6F6A5D06 EQ PUSH2 0x19A JUMPI DUP1 PUSH4 0x715018A6 EQ PUSH2 0x1A2 JUMPI DUP1 PUSH4 0x8DA5CB5B EQ PUSH2 0x1AA JUMPI DUP1 PUSH4 0x939EDD0E EQ PUSH2 0x1C5 JUMPI PUSH1 0x0 DUP1 REVERT JUMPDEST DUP1 PUSH4 0x120005AE EQ PUSH2 0x126 JUMPI DUP1 PUSH4 0x1C5F8024 EQ PUSH2 0x14C JUMPI DUP1 PUSH4 0x2FEA6AC4 EQ PUSH2 0x161 JUMPI DUP1 PUSH4 0x478B0F87 EQ PUSH2 0x174 JUMPI JUMPDEST PUSH1 0x0 DUP1 REVERT JUMPDEST PUSH1 0x2 SLOAD PUSH1 0x0 SWAP1 DUP2 MSTORE PUSH1 0xC PUSH1 0x20 MSTORE PUSH1 0x40 SWAP1 KECCAK256 SLOAD JUMPDEST PUSH1 0x40 MLOAD SWAP1 DUP2 MSTORE PUSH1 0x20 ADD JUMPDEST PUSH1 0x40 MLOAD DUP1 SWAP2 SUB SWAP1 RETURN JUMPDEST PUSH2 0x15F PUSH2 0x15A CALLDATASIZE PUSH1 0x4 PUSH2 0xF00 JUMP JUMPDEST PUSH2 0x418 JUMP JUMPDEST STOP JUMPDEST PUSH2 0x15F PUSH2 0x16F CALLDATASIZE PUSH1 0x4 PUSH2 0xF48 JUMP JUMPDEST PUSH2 0x44E JUMP JUMPDEST PUSH2 0x15F PUSH2 0x182 CALLDATASIZE PUSH1 0x4 PUSH2 0xF48 JUMP JUMPDEST PUSH2 0x47A JUMP JUMPDEST PUSH2 0x15F PUSH2 0x195 CALLDATASIZE PUSH1 0x4 PUSH2 0xF63 JUMP JUMPDEST PUSH2 0x59C JUMP JUMPDEST PUSH2 0x15F PUSH2 0xA4D JUMP JUMPDEST PUSH2 0x15F PUSH2 0xA76 JUMP JUMPDEST PUSH1 0x1 SLOAD PUSH1 0x40 MLOAD PUSH1 0x1 PUSH1 0x1 PUSH1 0xA0 SHL SUB SWAP1 SWAP2 AND DUP2 MSTORE PUSH1 0x20 ADD PUSH2 0x143 JUMP JUMPDEST PUSH2 0x15F PUSH2 0x1D3 CALLDATASIZE PUSH1 0x4 PUSH2 0xF48 JUMP JUMPDEST PUSH2 0xA8A JUMP JUMPDEST PUSH2 0x15F PUSH2 0xABA JUMP JUMPDEST PUSH2 0x139 PUSH1 0x5 SLOAD DUP2 JUMP JUMPDEST PUSH2 0x15F PUSH2 0x1F7 CALLDATASIZE PUSH1 0x4 PUSH2 0xF8D JUMP JUMPDEST PUSH2 0xACE JUMP JUMPDEST PUSH2 0x15F PUSH1 0x40 DUP1 MLOAD DUP1 DUP3 ADD DUP3 MSTORE PUSH8 0x16345785D8A0000 DUP2 MSTORE PUSH11 0x4F7D1E992E034FDC00000 PUSH1 0x20 DUP1 DUP4 ADD SWAP2 DUP3 MSTORE PUSH1 0x1 PUSH1 0x0 SWAP1 DUP2 MSTORE PUSH1 0xC DUP1 DUP4 MSTORE SWAP4 MLOAD PUSH32 0xD421A5181C571BBA3F01190C922C3B2A896FC1D84E86C9F17AC10E67EBEF8B5C SSTORE SWAP2 MLOAD PUSH32 0xD421A5181C571BBA3F01190C922C3B2A896FC1D84E86C9F17AC10E67EBEF8B5D SSTORE DUP4 MLOAD DUP1 DUP6 ADD DUP6 MSTORE PUSH8 0x214E8348C4F0000 DUP2 MSTORE PUSH11 0x22BDD88FED9EFC6A00000 DUP2 DUP4 ADD DUP2 DUP2 MSTORE PUSH1 0x2 DUP6 MSTORE DUP6 DUP5 MSTORE SWAP2 MLOAD PUSH32 0x5D6016397A73F5E079297AC5A36FEF17B4D9C3831618E63AB105738020DDD720 SSTORE SWAP1 MLOAD PUSH32 0x5D6016397A73F5E079297AC5A36FEF17B4D9C3831618E63AB105738020DDD721 SSTORE DUP5 MLOAD DUP1 DUP7 ADD DUP7 MSTORE PUSH8 0x2C68AF0BB140000 DUP2 MSTORE DUP1 DUP4 ADD DUP3 DUP2 MSTORE PUSH1 0x3 DUP6 MSTORE DUP6 DUP5 MSTORE SWAP1 MLOAD PUSH32 0xC0DA782485E77AE272268AE0A3FF44C1552ECB60B3743924DE17A815E0A3CFD7 SSTORE MLOAD PUSH32 0xC0DA782485E77AE272268AE0A3FF44C1552ECB60B3743924DE17A815E0A3CFD8 SSTORE DUP5 MLOAD DUP1 DUP7 ADD SWAP1 SWAP6 MSTORE PUSH8 0x3782DACE9D90000 DUP6 MSTORE DUP5 DUP3 ADD SWAP1 DUP2 MSTORE PUSH1 0x4 SWAP1 SWAP3 MSTORE SWAP2 SWAP1 SWAP2 MSTORE SWAP1 MLOAD PUSH32 0x5B84BB9E0F5AA9CC45A8BB66468DB5D4816D1E75FF86B5E1F1DD8D144DAB8097 SSTORE MLOAD PUSH32 0x5B84BB9E0F5AA9CC45A8BB66468DB5D4816D1E75FF86B5E1F1DD8D144DAB8098 SSTORE JUMP JUMPDEST PUSH1 0x2 SLOAD PUSH1 0x0 SWAP1 DUP2 MSTORE PUSH1 0xC PUSH1 0x20 MSTORE PUSH1 0x40 SWAP1 KECCAK256 PUSH1 0x1 ADD SLOAD PUSH2 0x139 JUMP JUMPDEST PUSH1 0x2 SLOAD PUSH2 0x139 JUMP JUMPDEST PUSH2 0x15F PUSH2 0x3EF CALLDATASIZE PUSH1 0x4 PUSH2 0xF48 JUMP JUMPDEST PUSH2 0xAE0 JUMP JUMPDEST PUSH2 0x15F PUSH2 0xB59 JUMP JUMPDEST PUSH2 0x15F PUSH2 0x40A CALLDATASIZE PUSH1 0x4 PUSH2 0xF48 JUMP JUMPDEST PUSH2 0xB70 JUMP JUMPDEST PUSH2 0x139 PUSH1 0x6 SLOAD DUP2 JUMP JUMPDEST PUSH2 0x420 PUSH2 0xB9C JUMP JUMPDEST PUSH1 0x40 DUP1 MLOAD DUP1 DUP3 ADD DUP3 MSTORE SWAP3 DUP4 MSTORE PUSH1 0x20 DUP1 DUP5 ADD SWAP3 DUP4 MSTORE PUSH1 0x0 SWAP5 DUP6 MSTORE PUSH1 0xC SWAP1 MSTORE SWAP1 SWAP3 KECCAK256 SWAP1 MLOAD DUP2 SSTORE SWAP1 MLOAD PUSH1 0x1 SWAP1 SWAP2 ADD SSTORE JUMP JUMPDEST PUSH2 0x456 PUSH2 0xB9C JUMP JUMPDEST PUSH1 0x1 PUSH1 0x1 PUSH1 0xA0 SHL SUB AND PUSH1 0x0 SWAP1 DUP2 MSTORE PUSH1 0xA PUSH1 0x20 MSTORE PUSH1 0x40 SWAP1 KECCAK256 DUP1 SLOAD PUSH1 0xFF NOT AND PUSH1 0x1 OR SWAP1 SSTORE JUMP JUMPDEST PUSH2 0x482 PUSH2 0xB9C JUMP JUMPDEST DUP1 PUSH1 0x1 PUSH1 0x1 PUSH1 0xA0 SHL SUB AND PUSH4 0xA9059CBB PUSH2 0x4A3 PUSH1 0x1 SLOAD PUSH1 0x1 PUSH1 0x1 PUSH1 0xA0 SHL SUB AND SWAP1 JUMP JUMPDEST PUSH1 0x40 MLOAD PUSH4 0x70A08231 PUSH1 0xE0 SHL DUP2 MSTORE ADDRESS PUSH1 0x4 DUP3 ADD MSTORE PUSH1 0x1 PUSH1 0x1 PUSH1 0xA0 SHL SUB DUP6 AND SWAP1 PUSH4 0x70A08231 SWAP1 PUSH1 0x24 ADD PUSH1 0x20 PUSH1 0x40 MLOAD DUP1 DUP4 SUB DUP2 DUP7 DUP1 EXTCODESIZE ISZERO DUP1 ISZERO PUSH2 0x4E2 JUMPI PUSH1 0x0 DUP1 REVERT JUMPDEST POP GAS STATICCALL ISZERO DUP1 ISZERO PUSH2 0x4F6 JUMPI RETURNDATASIZE PUSH1 0x0 DUP1 RETURNDATACOPY RETURNDATASIZE PUSH1 0x0 REVERT JUMPDEST POP POP POP POP PUSH1 0x40 MLOAD RETURNDATASIZE PUSH1 0x1F NOT PUSH1 0x1F DUP3 ADD AND DUP3 ADD DUP1 PUSH1 0x40 MSTORE POP DUP2 ADD SWAP1 PUSH2 0x51A SWAP2 SWAP1 PUSH2 0xFA6 JUMP JUMPDEST PUSH1 0x40 MLOAD PUSH1 0x1 PUSH1 0x1 PUSH1 0xE0 SHL SUB NOT PUSH1 0xE0 DUP6 SWAP1 SHL AND DUP2 MSTORE PUSH1 0x1 PUSH1 0x1 PUSH1 0xA0 SHL SUB SWAP1 SWAP3 AND PUSH1 0x4 DUP4 ADD MSTORE PUSH1 0x24 DUP3 ADD MSTORE PUSH1 0x44 ADD PUSH1 0x20 PUSH1 0x40 MLOAD DUP1 DUP4 SUB DUP2 PUSH1 0x0 DUP8 DUP1 EXTCODESIZE ISZERO DUP1 ISZERO PUSH2 0x560 JUMPI PUSH1 0x0 DUP1 REVERT JUMPDEST POP GAS CALL ISZERO DUP1 ISZERO PUSH2 0x574 JUMPI RETURNDATASIZE PUSH1 0x0 DUP1 RETURNDATACOPY RETURNDATASIZE PUSH1 0x0 REVERT JUMPDEST POP POP POP POP PUSH1 0x40 MLOAD RETURNDATASIZE PUSH1 0x1F NOT PUSH1 0x1F DUP3 ADD AND DUP3 ADD DUP1 PUSH1 0x40 MSTORE POP DUP2 ADD SWAP1 PUSH2 0x598 SWAP2 SWAP1 PUSH2 0xFBF JUMP JUMPDEST POP POP JUMP JUMPDEST PUSH2 0x5A4 PUSH2 0xBF6 JUMP JUMPDEST PUSH1 0x4 SLOAD PUSH1 0xFF AND ISZERO PUSH2 0x5EC JUMPI PUSH1 0x40 MLOAD PUSH3 0x461BCD PUSH1 0xE5 SHL DUP2 MSTORE PUSH1 0x20 PUSH1 0x4 DUP3 ADD MSTORE PUSH1 0xD PUSH1 0x24 DUP3 ADD MSTORE PUSH13 0x56656E74612050617573616461 PUSH1 0x98 SHL PUSH1 0x44 DUP3 ADD MSTORE PUSH1 0x64 ADD JUMPDEST PUSH1 0x40 MLOAD DUP1 SWAP2 SUB SWAP1 REVERT JUMPDEST PUSH1 0x1 PUSH1 0x1 PUSH1 0xA0 SHL SUB DUP3 AND PUSH1 0x0 SWAP1 DUP2 MSTORE PUSH1 0xA PUSH1 0x20 MSTORE PUSH1 0x40 SWAP1 KECCAK256 SLOAD PUSH1 0xFF AND PUSH2 0x644 JUMPI PUSH1 0x40 MLOAD PUSH3 0x461BCD PUSH1 0xE5 SHL DUP2 MSTORE PUSH1 0x20 PUSH1 0x4 DUP3 ADD MSTORE PUSH1 0xD PUSH1 0x24 DUP3 ADD MSTORE PUSH13 0x24B73B30B634B2102A37B5B2B7 PUSH1 0x99 SHL PUSH1 0x44 DUP3 ADD MSTORE PUSH1 0x64 ADD PUSH2 0x5E3 JUMP JUMPDEST PUSH1 0x2 SLOAD PUSH1 0x0 SWAP1 DUP2 MSTORE PUSH1 0xC PUSH1 0x20 SWAP1 DUP2 MSTORE PUSH1 0x40 DUP1 DUP4 KECCAK256 DUP2 MLOAD DUP1 DUP4 ADD SWAP1 SWAP3 MSTORE DUP1 SLOAD DUP3 MSTORE PUSH1 0x1 ADD SLOAD SWAP2 DUP2 ADD SWAP2 SWAP1 SWAP2 MSTORE SWAP1 PUSH2 0x67A CALLER DUP5 PUSH2 0xC50 JUMP JUMPDEST SWAP1 POP PUSH1 0x0 PUSH2 0x68C CALLER DUP5 PUSH1 0x0 ADD MLOAD PUSH2 0xDF1 JUMP JUMPDEST PUSH1 0x4 SLOAD SWAP1 SWAP2 POP PUSH1 0x1 PUSH1 0xA8 SHL SWAP1 DIV PUSH1 0xFF AND ISZERO PUSH2 0x700 JUMPI CALLER PUSH1 0x0 SWAP1 DUP2 MSTORE PUSH1 0x9 PUSH1 0x20 MSTORE PUSH1 0x40 SWAP1 KECCAK256 SLOAD PUSH1 0xFF AND PUSH2 0x700 JUMPI PUSH1 0x40 MLOAD PUSH3 0x461BCD PUSH1 0xE5 SHL DUP2 MSTORE PUSH1 0x20 PUSH1 0x4 DUP3 ADD MSTORE PUSH1 0x18 PUSH1 0x24 DUP3 ADD MSTORE PUSH32 0x596F7520617265206E6F7420696E2057686974654C6973740000000000000000 PUSH1 0x44 DUP3 ADD MSTORE PUSH1 0x64 ADD PUSH2 0x5E3 JUMP JUMPDEST PUSH1 0x40 MLOAD PUSH4 0x70A08231 PUSH1 0xE0 SHL DUP2 MSTORE CALLER PUSH1 0x4 DUP3 ADD MSTORE DUP5 SWAP1 PUSH1 0x1 PUSH1 0x1 PUSH1 0xA0 SHL SUB DUP8 AND SWAP1 PUSH4 0x70A08231 SWAP1 PUSH1 0x24 ADD PUSH1 0x20 PUSH1 0x40 MLOAD DUP1 DUP4 SUB DUP2 DUP7 DUP1 EXTCODESIZE ISZERO DUP1 ISZERO PUSH2 0x741 JUMPI PUSH1 0x0 DUP1 REVERT JUMPDEST POP GAS STATICCALL ISZERO DUP1 ISZERO PUSH2 0x755 JUMPI RETURNDATASIZE PUSH1 0x0 DUP1 RETURNDATACOPY RETURNDATASIZE PUSH1 0x0 REVERT JUMPDEST POP POP POP POP PUSH1 0x40 MLOAD RETURNDATASIZE PUSH1 0x1F NOT PUSH1 0x1F DUP3 ADD AND DUP3 ADD DUP1 PUSH1 0x40 MSTORE POP DUP2 ADD SWAP1 PUSH2 0x779 SWAP2 SWAP1 PUSH2 0xFA6 JUMP JUMPDEST LT ISZERO PUSH2 0x7B8 JUMPI PUSH1 0x40 MLOAD PUSH3 0x461BCD PUSH1 0xE5 SHL DUP2 MSTORE PUSH1 0x20 PUSH1 0x4 DUP3 ADD MSTORE PUSH1 0xE PUSH1 0x24 DUP3 ADD MSTORE PUSH14 0x42616C616E636520546F204C6F77 PUSH1 0x90 SHL PUSH1 0x44 DUP3 ADD MSTORE PUSH1 0x64 ADD PUSH2 0x5E3 JUMP JUMPDEST PUSH1 0x0 PUSH2 0x7C4 DUP3 DUP7 PUSH2 0xFF7 JUMP JUMPDEST SWAP1 POP PUSH1 0x0 DUP2 DUP5 PUSH2 0x7D5 PUSH1 0x64 DUP4 PUSH2 0xFF7 JUMP JUMPDEST PUSH2 0x7DF SWAP2 SWAP1 PUSH2 0x1019 JUMP JUMPDEST PUSH2 0x7E9 SWAP2 SWAP1 PUSH2 0x1038 JUMP JUMPDEST PUSH2 0x7FB SWAP1 PUSH8 0xDE0B6B3A7640000 PUSH2 0x1019 JUMP JUMPDEST SWAP1 POP DUP1 PUSH1 0x5 PUSH1 0x0 DUP3 DUP3 SLOAD PUSH2 0x80F SWAP2 SWAP1 PUSH2 0x1038 JUMP JUMPDEST SWAP3 POP POP DUP2 SWAP1 SSTORE POP DUP6 PUSH1 0x6 PUSH1 0x0 DUP3 DUP3 SLOAD PUSH2 0x828 SWAP2 SWAP1 PUSH2 0x1038 JUMP JUMPDEST SWAP1 SWAP2 SSTORE POP POP PUSH1 0x5 SLOAD PUSH1 0x20 DUP7 ADD MLOAD EQ ISZERO PUSH2 0x86E JUMPI PUSH1 0x1 PUSH1 0x2 PUSH1 0x0 DUP3 DUP3 SLOAD PUSH2 0x84E SWAP2 SWAP1 PUSH2 0x1038 JUMP JUMPDEST SWAP3 POP POP DUP2 SWAP1 SSTORE POP PUSH1 0x0 PUSH1 0x5 PUSH1 0x0 DUP3 DUP3 SLOAD PUSH2 0x868 SWAP2 SWAP1 PUSH2 0x1038 JUMP JUMPDEST SWAP1 SWAP2 SSTORE POP POP JUMPDEST PUSH1 0x4 DUP1 SLOAD PUSH1 0x40 MLOAD PUSH4 0x23B872DD PUSH1 0xE0 SHL DUP2 MSTORE CALLER SWAP3 DUP2 ADD SWAP3 SWAP1 SWAP3 MSTORE PUSH2 0x100 SWAP1 DIV PUSH1 0x1 PUSH1 0x1 PUSH1 0xA0 SHL SUB SWAP1 DUP2 AND PUSH1 0x24 DUP4 ADD MSTORE PUSH1 0x44 DUP3 ADD DUP9 SWAP1 MSTORE DUP9 AND SWAP1 PUSH4 0x23B872DD SWAP1 PUSH1 0x64 ADD PUSH1 0x20 PUSH1 0x40 MLOAD DUP1 DUP4 SUB DUP2 PUSH1 0x0 DUP8 DUP1 EXTCODESIZE ISZERO DUP1 ISZERO PUSH2 0x8C9 JUMPI PUSH1 0x0 DUP1 REVERT JUMPDEST POP GAS CALL ISZERO DUP1 ISZERO PUSH2 0x8DD JUMPI RETURNDATASIZE PUSH1 0x0 DUP1 RETURNDATACOPY RETURNDATASIZE PUSH1 0x0 REVERT JUMPDEST POP POP POP POP PUSH1 0x40 MLOAD RETURNDATASIZE PUSH1 0x1F NOT PUSH1 0x1F DUP3 ADD AND DUP3 ADD DUP1 PUSH1 0x40 MSTORE POP DUP2 ADD SWAP1 PUSH2 0x901 SWAP2 SWAP1 PUSH2 0xFBF JUMP JUMPDEST PUSH2 0x941 JUMPI PUSH1 0x40 MLOAD PUSH3 0x461BCD PUSH1 0xE5 SHL DUP2 MSTORE PUSH1 0x20 PUSH1 0x4 DUP3 ADD MSTORE PUSH1 0x11 PUSH1 0x24 DUP3 ADD MSTORE PUSH17 0x22B93937B91034B7102A3930B739B332B9 PUSH1 0x79 SHL PUSH1 0x44 DUP3 ADD MSTORE PUSH1 0x64 ADD PUSH2 0x5E3 JUMP JUMPDEST PUSH1 0x7 SLOAD PUSH1 0x40 MLOAD PUSH4 0xA9059CBB PUSH1 0xE0 SHL DUP2 MSTORE CALLER PUSH1 0x4 DUP3 ADD MSTORE PUSH1 0x24 DUP2 ADD DUP4 SWAP1 MSTORE PUSH1 0x1 PUSH1 0x1 PUSH1 0xA0 SHL SUB SWAP1 SWAP2 AND SWAP1 PUSH4 0xA9059CBB SWAP1 PUSH1 0x44 ADD PUSH1 0x20 PUSH1 0x40 MLOAD DUP1 DUP4 SUB DUP2 PUSH1 0x0 DUP8 DUP1 EXTCODESIZE ISZERO DUP1 ISZERO PUSH2 0x98D JUMPI PUSH1 0x0 DUP1 REVERT JUMPDEST POP GAS CALL ISZERO DUP1 ISZERO PUSH2 0x9A1 JUMPI RETURNDATASIZE PUSH1 0x0 DUP1 RETURNDATACOPY RETURNDATASIZE PUSH1 0x0 REVERT JUMPDEST POP POP POP POP PUSH1 0x40 MLOAD RETURNDATASIZE PUSH1 0x1F NOT PUSH1 0x1F DUP3 ADD AND DUP3 ADD DUP1 PUSH1 0x40 MSTORE POP DUP2 ADD SWAP1 PUSH2 0x9C5 SWAP2 SWAP1 PUSH2 0xFBF JUMP JUMPDEST PUSH2 0xA05 JUMPI PUSH1 0x40 MLOAD PUSH3 0x461BCD PUSH1 0xE5 SHL DUP2 MSTORE PUSH1 0x20 PUSH1 0x4 DUP3 ADD MSTORE PUSH1 0x11 PUSH1 0x24 DUP3 ADD MSTORE PUSH17 0x22B93937B91034B7102A3930B739B332B9 PUSH1 0x79 SHL PUSH1 0x44 DUP3 ADD MSTORE PUSH1 0x64 ADD PUSH2 0x5E3 JUMP JUMPDEST PUSH1 0x40 DUP1 MLOAD CALLER DUP2 MSTORE PUSH1 0x20 DUP2 ADD DUP5 SWAP1 MSTORE PUSH32 0x1ECC62D178AB4FFE6884F1463E2F3F563FA4090EF4F4A9C7C2682D9AA81ABD20 SWAP2 ADD PUSH1 0x40 MLOAD DUP1 SWAP2 SUB SWAP1 LOG1 POP POP POP POP POP PUSH2 0x598 PUSH1 0x1 PUSH1 0x0 SSTORE JUMP JUMPDEST PUSH2 0xA55 PUSH2 0xB9C JUMP JUMPDEST PUSH1 0x4 DUP1 SLOAD PUSH1 0xFF PUSH1 0xA8 SHL NOT DUP2 AND PUSH1 0x1 PUSH1 0xA8 SHL SWAP2 DUP3 SWAP1 DIV PUSH1 0xFF AND ISZERO SWAP1 SWAP2 MUL OR SWAP1 SSTORE JUMP JUMPDEST PUSH2 0xA7E PUSH2 0xB9C JUMP JUMPDEST PUSH2 0xA88 PUSH1 0x0 PUSH2 0xE9B JUMP JUMPDEST JUMP JUMPDEST PUSH2 0xA92 PUSH2 0xB9C JUMP JUMPDEST PUSH1 0x4 DUP1 SLOAD PUSH1 0x1 PUSH1 0x1 PUSH1 0xA0 SHL SUB SWAP1 SWAP3 AND PUSH2 0x100 MUL PUSH2 0x100 PUSH1 0x1 PUSH1 0xA8 SHL SUB NOT SWAP1 SWAP3 AND SWAP2 SWAP1 SWAP2 OR SWAP1 SSTORE JUMP JUMPDEST PUSH2 0xAC2 PUSH2 0xB9C JUMP JUMPDEST PUSH1 0x4 DUP1 SLOAD PUSH1 0xFF NOT AND SWAP1 SSTORE JUMP JUMPDEST PUSH2 0xAD6 PUSH2 0xB9C JUMP JUMPDEST PUSH1 0x2 SSTORE PUSH1 0x0 PUSH1 0x5 SSTORE JUMP JUMPDEST PUSH2 0xAE8 PUSH2 0xB9C JUMP JUMPDEST PUSH1 0x1 PUSH1 0x1 PUSH1 0xA0 SHL SUB DUP2 AND PUSH2 0xB4D JUMPI PUSH1 0x40 MLOAD PUSH3 0x461BCD PUSH1 0xE5 SHL DUP2 MSTORE PUSH1 0x20 PUSH1 0x4 DUP3 ADD MSTORE PUSH1 0x26 PUSH1 0x24 DUP3 ADD MSTORE PUSH32 0x4F776E61626C653A206E6577206F776E657220697320746865207A65726F2061 PUSH1 0x44 DUP3 ADD MSTORE PUSH6 0x646472657373 PUSH1 0xD0 SHL PUSH1 0x64 DUP3 ADD MSTORE PUSH1 0x84 ADD PUSH2 0x5E3 JUMP JUMPDEST PUSH2 0xB56 DUP2 PUSH2 0xE9B JUMP JUMPDEST POP JUMP JUMPDEST PUSH2 0xB61 PUSH2 0xB9C JUMP JUMPDEST PUSH1 0x4 DUP1 SLOAD PUSH1 0xFF NOT AND PUSH1 0x1 OR SWAP1 SSTORE JUMP JUMPDEST PUSH2 0xB78 PUSH2 0xB9C JUMP JUMPDEST PUSH1 0x1 PUSH1 0x1 PUSH1 0xA0 SHL SUB AND PUSH1 0x0 SWAP1 DUP2 MSTORE PUSH1 0x9 PUSH1 0x20 MSTORE PUSH1 0x40 SWAP1 KECCAK256 DUP1 SLOAD PUSH1 0xFF NOT AND PUSH1 0x1 OR SWAP1 SSTORE JUMP JUMPDEST PUSH1 0x1 SLOAD PUSH1 0x1 PUSH1 0x1 PUSH1 0xA0 SHL SUB AND CALLER EQ PUSH2 0xA88 JUMPI PUSH1 0x40 MLOAD PUSH3 0x461BCD PUSH1 0xE5 SHL DUP2 MSTORE PUSH1 0x20 PUSH1 0x4 DUP3 ADD DUP2 SWAP1 MSTORE PUSH1 0x24 DUP3 ADD MSTORE PUSH32 0x4F776E61626C653A2063616C6C6572206973206E6F7420746865206F776E6572 PUSH1 0x44 DUP3 ADD MSTORE PUSH1 0x64 ADD PUSH2 0x5E3 JUMP JUMPDEST PUSH1 0x2 PUSH1 0x0 SLOAD EQ ISZERO PUSH2 0xC49 JUMPI PUSH1 0x40 MLOAD PUSH3 0x461BCD PUSH1 0xE5 SHL DUP2 MSTORE PUSH1 0x20 PUSH1 0x4 DUP3 ADD MSTORE PUSH1 0x1F PUSH1 0x24 DUP3 ADD MSTORE PUSH32 0x5265656E7472616E637947756172643A207265656E7472616E742063616C6C00 PUSH1 0x44 DUP3 ADD MSTORE PUSH1 0x64 ADD PUSH2 0x5E3 JUMP JUMPDEST PUSH1 0x2 PUSH1 0x0 SSTORE JUMP JUMPDEST PUSH1 0x8 SLOAD PUSH1 0x40 MLOAD PUSH4 0x70A08231 PUSH1 0xE0 SHL DUP2 MSTORE PUSH1 0x1 PUSH1 0x1 PUSH1 0xA0 SHL SUB DUP5 DUP2 AND PUSH1 0x4 DUP4 ADD MSTORE PUSH1 0x0 SWAP3 DUP4 SWAP3 SWAP2 AND SWAP1 PUSH4 0x70A08231 SWAP1 PUSH1 0x24 ADD PUSH1 0x20 PUSH1 0x40 MLOAD DUP1 DUP4 SUB DUP2 DUP7 DUP1 EXTCODESIZE ISZERO DUP1 ISZERO PUSH2 0xC99 JUMPI PUSH1 0x0 DUP1 REVERT JUMPDEST POP GAS STATICCALL ISZERO DUP1 ISZERO PUSH2 0xCAD JUMPI RETURNDATASIZE PUSH1 0x0 DUP1 RETURNDATACOPY RETURNDATASIZE PUSH1 0x0 REVERT JUMPDEST POP POP POP POP PUSH1 0x40 MLOAD RETURNDATASIZE PUSH1 0x1F NOT PUSH1 0x1F DUP3 ADD AND DUP3 ADD DUP1 PUSH1 0x40 MSTORE POP DUP2 ADD SWAP1 PUSH2 0xCD1 SWAP2 SWAP1 PUSH2 0xFA6 JUMP JUMPDEST SWAP1 POP PUSH2 0xCE1 PUSH4 0x5F5E100 DUP3 PUSH2 0xFF7 JUMP JUMPDEST SWAP1 POP PUSH2 0xCF5 PUSH8 0xDE0B6B3A7640000 DUP5 PUSH2 0xFF7 JUMP JUMPDEST SWAP3 POP PUSH1 0x0 PUSH1 0x1 DUP3 GT ISZERO PUSH2 0xDAA JUMPI PUSH3 0x3D090 DUP3 LT ISZERO DUP1 ISZERO PUSH2 0xD16 JUMPI POP PUSH1 0x32 DUP5 LT ISZERO JUMPDEST ISZERO PUSH2 0xD1F JUMPI POP PUSH1 0x19 JUMPDEST PUSH3 0x7A120 DUP3 LT ISZERO DUP1 ISZERO PUSH2 0xD33 JUMPI POP PUSH1 0x64 DUP5 LT ISZERO JUMPDEST ISZERO PUSH2 0xD3C JUMPI POP PUSH1 0x32 JUMPDEST PUSH3 0x7A121 DUP3 LT ISZERO DUP1 ISZERO PUSH2 0xD52 JUMPI POP PUSH3 0xF4240 DUP3 GT ISZERO JUMPDEST DUP1 ISZERO PUSH2 0xD60 JUMPI POP PUSH2 0x1F4 DUP5 LT ISZERO JUMPDEST ISZERO PUSH2 0xD69 JUMPI POP PUSH1 0x64 JUMPDEST PUSH3 0xF4240 DUP3 LT ISZERO DUP1 ISZERO PUSH2 0xD7E JUMPI POP PUSH2 0x3E8 DUP5 LT ISZERO JUMPDEST ISZERO PUSH2 0xD87 JUMPI POP PUSH1 0x96 JUMPDEST PUSH3 0xF4240 DUP3 LT ISZERO DUP1 ISZERO PUSH2 0xD9C JUMPI POP PUSH2 0x1388 DUP5 LT ISZERO JUMPDEST ISZERO PUSH2 0xDA5 JUMPI POP PUSH1 0xC8 JUMPDEST PUSH2 0xDE9 JUMP JUMPDEST PUSH1 0x32 DUP5 LT PUSH2 0xDB6 JUMPI POP PUSH1 0x19 JUMPDEST PUSH1 0x64 DUP5 LT PUSH2 0xDC2 JUMPI POP PUSH1 0x32 JUMPDEST PUSH2 0x1F4 DUP5 LT PUSH2 0xDCF JUMPI POP PUSH1 0x64 JUMPDEST PUSH2 0x3E8 DUP5 LT PUSH2 0xDDC JUMPI POP PUSH1 0x96 JUMPDEST PUSH2 0x1388 DUP5 LT PUSH2 0xDE9 JUMPI POP PUSH1 0xC8 JUMPDEST SWAP5 SWAP4 POP POP POP POP JUMP JUMPDEST PUSH1 0x8 SLOAD PUSH1 0x40 MLOAD PUSH4 0x70A08231 PUSH1 0xE0 SHL DUP2 MSTORE PUSH1 0x1 PUSH1 0x1 PUSH1 0xA0 SHL SUB DUP5 DUP2 AND PUSH1 0x4 DUP4 ADD MSTORE PUSH1 0x0 SWAP3 DUP4 SWAP3 SWAP2 AND SWAP1 PUSH4 0x70A08231 SWAP1 PUSH1 0x24 ADD PUSH1 0x20 PUSH1 0x40 MLOAD DUP1 DUP4 SUB DUP2 DUP7 DUP1 EXTCODESIZE ISZERO DUP1 ISZERO PUSH2 0xE3A JUMPI PUSH1 0x0 DUP1 REVERT JUMPDEST POP GAS STATICCALL ISZERO DUP1 ISZERO PUSH2 0xE4E JUMPI RETURNDATASIZE PUSH1 0x0 DUP1 RETURNDATACOPY RETURNDATASIZE PUSH1 0x0 REVERT JUMPDEST POP POP POP POP PUSH1 0x40 MLOAD RETURNDATASIZE PUSH1 0x1F NOT PUSH1 0x1F DUP3 ADD AND DUP3 ADD DUP1 PUSH1 0x40 MSTORE POP DUP2 ADD SWAP1 PUSH2 0xE72 SWAP2 SWAP1 PUSH2 0xFA6 JUMP JUMPDEST SWAP1 POP DUP3 PUSH4 0x5F5E100 DUP3 GT ISZERO PUSH2 0xDE9 JUMPI PUSH2 0xE92 DUP5 PUSH7 0xB1A2BC2EC50000 PUSH2 0xEED JUMP JUMPDEST SWAP6 SWAP5 POP POP POP POP POP JUMP JUMPDEST PUSH1 0x1 DUP1 SLOAD PUSH1 0x1 PUSH1 0x1 PUSH1 0xA0 SHL SUB DUP4 DUP2 AND PUSH1 0x1 PUSH1 0x1 PUSH1 0xA0 SHL SUB NOT DUP4 AND DUP2 OR SWAP1 SWAP4 SSTORE PUSH1 0x40 MLOAD SWAP2 AND SWAP2 SWAP1 DUP3 SWAP1 PUSH32 0x8BE0079C531659141344CD1FD0A4F28419497F9722A3DAAFE3B4186F6B6457E0 SWAP1 PUSH1 0x0 SWAP1 LOG3 POP POP JUMP JUMPDEST PUSH1 0x0 PUSH2 0xEF9 DUP3 DUP5 PUSH2 0x1050 JUMP JUMPDEST SWAP4 SWAP3 POP POP POP JUMP JUMPDEST PUSH1 0x0 DUP1 PUSH1 0x0 PUSH1 0x60 DUP5 DUP7 SUB SLT ISZERO PUSH2 0xF15 JUMPI PUSH1 0x0 DUP1 REVERT JUMPDEST POP POP DUP2 CALLDATALOAD SWAP4 PUSH1 0x20 DUP4 ADD CALLDATALOAD SWAP4 POP PUSH1 0x40 SWAP1 SWAP3 ADD CALLDATALOAD SWAP2 SWAP1 POP JUMP JUMPDEST DUP1 CALLDATALOAD PUSH1 0x1 PUSH1 0x1 PUSH1 0xA0 SHL SUB DUP2 AND DUP2 EQ PUSH2 0xF43 JUMPI PUSH1 0x0 DUP1 REVERT JUMPDEST SWAP2 SWAP1 POP JUMP JUMPDEST PUSH1 0x0 PUSH1 0x20 DUP3 DUP5 SUB SLT ISZERO PUSH2 0xF5A JUMPI PUSH1 0x0 DUP1 REVERT JUMPDEST PUSH2 0xEF9 DUP3 PUSH2 0xF2C JUMP JUMPDEST PUSH1 0x0 DUP1 PUSH1 0x40 DUP4 DUP6 SUB SLT ISZERO PUSH2 0xF76 JUMPI PUSH1 0x0 DUP1 REVERT JUMPDEST PUSH2 0xF7F DUP4 PUSH2 0xF2C JUMP JUMPDEST SWAP5 PUSH1 0x20 SWAP4 SWAP1 SWAP4 ADD CALLDATALOAD SWAP4 POP POP POP JUMP JUMPDEST PUSH1 0x0 PUSH1 0x20 DUP3 DUP5 SUB SLT ISZERO PUSH2 0xF9F JUMPI PUSH1 0x0 DUP1 REVERT JUMPDEST POP CALLDATALOAD SWAP2 SWAP1 POP JUMP JUMPDEST PUSH1 0x0 PUSH1 0x20 DUP3 DUP5 SUB SLT ISZERO PUSH2 0xFB8 JUMPI PUSH1 0x0 DUP1 REVERT JUMPDEST POP MLOAD SWAP2 SWAP1 POP JUMP JUMPDEST PUSH1 0x0 PUSH1 0x20 DUP3 DUP5 SUB SLT ISZERO PUSH2 0xFD1 JUMPI PUSH1 0x0 DUP1 REVERT JUMPDEST DUP2 MLOAD DUP1 ISZERO ISZERO DUP2 EQ PUSH2 0xEF9 JUMPI PUSH1 0x0 DUP1 REVERT JUMPDEST PUSH4 0x4E487B71 PUSH1 0xE0 SHL PUSH1 0x0 MSTORE PUSH1 0x11 PUSH1 0x4 MSTORE PUSH1 0x24 PUSH1 0x0 REVERT JUMPDEST PUSH1 0x0 DUP3 PUSH2 0x1014 JUMPI PUSH4 0x4E487B71 PUSH1 0xE0 SHL PUSH1 0x0 MSTORE PUSH1 0x12 PUSH1 0x4 MSTORE PUSH1 0x24 PUSH1 0x0 REVERT JUMPDEST POP DIV SWAP1 JUMP JUMPDEST PUSH1 0x0 DUP2 PUSH1 0x0 NOT DIV DUP4 GT DUP3 ISZERO ISZERO AND ISZERO PUSH2 0x1033 JUMPI PUSH2 0x1033 PUSH2 0xFE1 JUMP JUMPDEST POP MUL SWAP1 JUMP JUMPDEST PUSH1 0x0 DUP3 NOT DUP3 GT ISZERO PUSH2 0x104B JUMPI PUSH2 0x104B PUSH2 0xFE1 JUMP JUMPDEST POP ADD SWAP1 JUMP JUMPDEST PUSH1 0x0 DUP3 DUP3 LT ISZERO PUSH2 0x1062 JUMPI PUSH2 0x1062 PUSH2 0xFE1 JUMP JUMPDEST POP SUB SWAP1 JUMP INVALID LOG2 PUSH5 0x6970667358 0x22 SLT KECCAK256 0xE8 0xD1 0xCF CALL 0xEC 0xB7 0xC5 SWAP8 0xDD EQ 0xC3 0xFB PUSH7 0xB36256BEEB69C2 CALLVALUE 0xE4 0xB5 BASEFEE 0xA9 EXTCODESIZE 0xB5 0xA9 0x4E 0xB5 0xA5 DUP12 PUSH5 0x736F6C6343 STOP ADDMOD MULMOD STOP CALLER "},"methodIdentifiers":{"AddPhase(uint256,uint256,uint256)":"1c5f8024","AddTokenAccept(address)":"2fea6ac4","AddWhiteList(address)":"f8d5f409","BuyReffi(address,uint256)":"5a53bf31","ChangeActivateWhiteList()":"6f6a5d06","ChangePhase(uint256)":"cf922b1e","ChangeWalletLiquidity(address)":"939edd0e","PhaseSelling()":"c362d20c","RecoverTokens(address)":"478b0f87","TotalSelling()":"f9b49640","addPhases()":"d3afd6ac","getPhase()":"eced0280","getPhaseCost()":"e7cc0f79","getPhasePrice()":"120005ae","lock()":"f83d08ba","owner()":"8da5cb5b","renounceOwnership()":"715018a6","transferOwnership(address)":"f2fde38b","unlock()":"a69df4b5"}}}}}