{
  "_format": "hh-sol-artifact-1",
  "contractName": "REFFISELL",
  "sourceName": "contracts/refisell.sol",
  "abi": [
    {
      "inputs": [
        {
          "internalType": "address",
          "name": "_criptovision",
          "type": "address"
        },
        {
          "internalType": "address",
          "name": "_refi",
          "type": "address"
        },
        {
          "internalType": "address",
          "name": "_walletDindon",
          "type": "address"
        }
      ],
      "stateMutability": "nonpayable",
      "type": "constructor"
    },
    {
      "anonymous": false,
      "inputs": [
        {
          "indexed": false,
          "internalType": "address",
          "name": "refer",
          "type": "address"
        },
        {
          "indexed": false,
          "internalType": "uint256",
          "name": "_amount",
          "type": "uint256"
        }
      ],
      "name": "AirdopReferal",
      "type": "event"
    },
    {
      "anonymous": false,
      "inputs": [
        {
          "indexed": true,
          "internalType": "address",
          "name": "previousOwner",
          "type": "address"
        },
        {
          "indexed": true,
          "internalType": "address",
          "name": "newOwner",
          "type": "address"
        }
      ],
      "name": "OwnershipTransferred",
      "type": "event"
    },
    {
      "anonymous": false,
      "inputs": [
        {
          "indexed": false,
          "internalType": "address",
          "name": "buyer",
          "type": "address"
        },
        {
          "indexed": false,
          "internalType": "uint256",
          "name": "_amount",
          "type": "uint256"
        }
      ],
      "name": "ReffiBuyed",
      "type": "event"
    },
    {
      "inputs": [
        {
          "internalType": "uint256",
          "name": "_phase",
          "type": "uint256"
        },
        {
          "internalType": "uint256",
          "name": "_price",
          "type": "uint256"
        },
        {
          "internalType": "uint256",
          "name": "_amount",
          "type": "uint256"
        }
      ],
      "name": "AddPhase",
      "outputs": [],
      "stateMutability": "nonpayable",
      "type": "function"
    },
    {
      "inputs": [
        {
          "internalType": "address",
          "name": "_address",
          "type": "address"
        }
      ],
      "name": "AddTokenAccept",
      "outputs": [],
      "stateMutability": "nonpayable",
      "type": "function"
    },
    {
      "inputs": [
        {
          "internalType": "address",
          "name": "_address",
          "type": "address"
        }
      ],
      "name": "AddWhiteList",
      "outputs": [],
      "stateMutability": "nonpayable",
      "type": "function"
    },
    {
      "inputs": [
        {
          "internalType": "address",
          "name": "_token",
          "type": "address"
        },
        {
          "internalType": "uint256",
          "name": "_amount",
          "type": "uint256"
        }
      ],
      "name": "BuyReffi",
      "outputs": [],
      "stateMutability": "nonpayable",
      "type": "function"
    },
    {
      "inputs": [],
      "name": "ChangeActivateWhiteList",
      "outputs": [],
      "stateMutability": "nonpayable",
      "type": "function"
    },
    {
      "inputs": [
        {
          "internalType": "uint256",
          "name": "_number",
          "type": "uint256"
        }
      ],
      "name": "ChangePhase",
      "outputs": [],
      "stateMutability": "nonpayable",
      "type": "function"
    },
    {
      "inputs": [
        {
          "internalType": "address",
          "name": "_address",
          "type": "address"
        }
      ],
      "name": "ChangeWalletLiquidity",
      "outputs": [],
      "stateMutability": "nonpayable",
      "type": "function"
    },
    {
      "inputs": [],
      "name": "PhaseSelling",
      "outputs": [
        {
          "internalType": "uint256",
          "name": "",
          "type": "uint256"
        }
      ],
      "stateMutability": "view",
      "type": "function"
    },
    {
      "inputs": [
        {
          "internalType": "uint256",
          "name": "_amount",
          "type": "uint256"
        }
      ],
      "name": "PhaseSellingAdd",
      "outputs": [],
      "stateMutability": "nonpayable",
      "type": "function"
    },
    {
      "inputs": [
        {
          "internalType": "address",
          "name": "_token",
          "type": "address"
        }
      ],
      "name": "RecoverTokens",
      "outputs": [],
      "stateMutability": "nonpayable",
      "type": "function"
    },
    {
      "inputs": [
        {
          "internalType": "uint256",
          "name": "_amount",
          "type": "uint256"
        }
      ],
      "name": "TokensSellAdd",
      "outputs": [],
      "stateMutability": "nonpayable",
      "type": "function"
    },
    {
      "inputs": [],
      "name": "TotalSelling",
      "outputs": [
        {
          "internalType": "uint256",
          "name": "",
          "type": "uint256"
        }
      ],
      "stateMutability": "view",
      "type": "function"
    },
    {
      "inputs": [],
      "name": "addPhases",
      "outputs": [],
      "stateMutability": "nonpayable",
      "type": "function"
    },
    {
      "inputs": [],
      "name": "getPhase",
      "outputs": [
        {
          "internalType": "uint256",
          "name": "",
          "type": "uint256"
        }
      ],
      "stateMutability": "view",
      "type": "function"
    },
    {
      "inputs": [],
      "name": "getPhaseCost",
      "outputs": [
        {
          "internalType": "uint256",
          "name": "",
          "type": "uint256"
        }
      ],
      "stateMutability": "view",
      "type": "function"
    },
    {
      "inputs": [],
      "name": "getPhasePrice",
      "outputs": [
        {
          "internalType": "uint256",
          "name": "",
          "type": "uint256"
        }
      ],
      "stateMutability": "view",
      "type": "function"
    },
    {
      "inputs": [],
      "name": "lock",
      "outputs": [],
      "stateMutability": "nonpayable",
      "type": "function"
    },
    {
      "inputs": [],
      "name": "owner",
      "outputs": [
        {
          "internalType": "address",
          "name": "",
          "type": "address"
        }
      ],
      "stateMutability": "view",
      "type": "function"
    },
    {
      "inputs": [],
      "name": "renounceOwnership",
      "outputs": [],
      "stateMutability": "nonpayable",
      "type": "function"
    },
    {
      "inputs": [
        {
          "internalType": "address",
          "name": "newOwner",
          "type": "address"
        }
      ],
      "name": "transferOwnership",
      "outputs": [],
      "stateMutability": "nonpayable",
      "type": "function"
    },
    {
      "inputs": [],
      "name": "unlock",
      "outputs": [],
      "stateMutability": "nonpayable",
      "type": "function"
    }
  ],
  "bytecode": "0x6080604052600160025534801561001557600080fd5b5060405161136d38038061136d83398101604081905261003491610330565b6001600055610042336102c2565b60048054610100600160a81b0319166101006001600160a01b0393841602178155600780546001600160a01b0319908116948416949094179055600880549093169390911692909217905560408051808201825267016345785d8a000081526a04f7d1e992e034fdc00000602080830191825260016000818152600c80845294517fd421a5181c571bba3f01190c922c3b2a896fc1d84e86c9f17ac10e67ebef8b5c5592517fd421a5181c571bba3f01190c922c3b2a896fc1d84e86c9f17ac10e67ebef8b5d5584518086018652670214e8348c4f000081526a022bdd88fed9efc6a000008184018181526002865286855291517f5d6016397a73f5e079297ac5a36fef17b4d9c3831618e63ab105738020ddd7205590517f5d6016397a73f5e079297ac5a36fef17b4d9c3831618e63ab105738020ddd72155855180870187526702c68af0bb14000081528084018281526003865286855290517fc0da782485e77ae272268ae0a3ff44c1552ecb60b3743924de17a815e0a3cfd755517fc0da782485e77ae272268ae0a3ff44c1552ecb60b3743924de17a815e0a3cfd85585518087019096526703782dace9d90000865285830190815295835292815292517f5b84bb9e0f5aa9cc45a8bb66468db5d4816d1e75ff86b5e1f1dd8d144dab80975592517f5b84bb9e0f5aa9cc45a8bb66468db5d4816d1e75ff86b5e1f1dd8d144dab809855600a9091527fb0775d57c3eeb070f58d410e36e9ff396813a5d76997d9a91bdf10f0798296f0805460ff19908116831790915573e9e7cea3dedca5984780bafc599bd69add087d569092527f588f8bca8b2048a19ea94cc48f893d0bde00a1faadb2e5327aa9408686f2bdf28054909216179055610373565b600180546001600160a01b038381166001600160a01b0319831681179093556040519116919082907f8be0079c531659141344cd1fd0a4f28419497f9722a3daafe3b4186f6b6457e090600090a35050565b80516001600160a01b038116811461032b57600080fd5b919050565b60008060006060848603121561034557600080fd5b61034e84610314565b925061035c60208501610314565b915061036a60408501610314565b90509250925092565b610feb806103826000396000f3fe608060405234801561001057600080fd5b50600436106101375760003560e01c8063939edd0e116100b8578063e7cc0f791161007c578063e7cc0f79146103fb578063eced028014610415578063f2fde38b1461041d578063f83d08ba14610430578063f8d5f40914610438578063f9b496401461044b57600080fd5b8063939edd0e14610201578063a69df4b514610214578063c362d20c1461021c578063cf922b1e14610225578063d3afd6ac1461023857600080fd5b8063478b0f87116100ff578063478b0f87146101b05780635a53bf31146101c35780636f6a5d06146101d6578063715018a6146101de5780638da5cb5b146101e657600080fd5b806308c174be1461013c578063120005ae146101515780631bfa3bf7146101775780631c5f80241461018a5780632fea6ac41461019d575b600080fd5b61014f61014a366004610e4e565b610454565b005b6002546000908152600c60205260409020545b6040519081526020015b60405180910390f35b61014f610185366004610e4e565b610461565b61014f610198366004610e67565b61046e565b61014f6101ab366004610eaf565b6104a4565b61014f6101be366004610eaf565b6104d0565b61014f6101d1366004610eca565b6105f2565b61014f610aa2565b61014f610acb565b6001546040516001600160a01b03909116815260200161016e565b61014f61020f366004610eaf565b610adf565b61014f610b0f565b61016460055481565b61014f610233366004610e4e565b610b23565b61014f60408051808201825267016345785d8a000081526a04f7d1e992e034fdc00000602080830191825260016000908152600c80835293517fd421a5181c571bba3f01190c922c3b2a896fc1d84e86c9f17ac10e67ebef8b5c5591517fd421a5181c571bba3f01190c922c3b2a896fc1d84e86c9f17ac10e67ebef8b5d5583518085018552670214e8348c4f000081526a022bdd88fed9efc6a000008183018181526002855285845291517f5d6016397a73f5e079297ac5a36fef17b4d9c3831618e63ab105738020ddd7205590517f5d6016397a73f5e079297ac5a36fef17b4d9c3831618e63ab105738020ddd72155845180860186526702c68af0bb14000081528083018281526003855285845290517fc0da782485e77ae272268ae0a3ff44c1552ecb60b3743924de17a815e0a3cfd755517fc0da782485e77ae272268ae0a3ff44c1552ecb60b3743924de17a815e0a3cfd85584518086019095526703782dace9d90000855284820190815260049092529190915290517f5b84bb9e0f5aa9cc45a8bb66468db5d4816d1e75ff86b5e1f1dd8d144dab809755517f5b84bb9e0f5aa9cc45a8bb66468db5d4816d1e75ff86b5e1f1dd8d144dab809855565b6002546000908152600c6020526040902060010154610164565b600254610164565b61014f61042b366004610eaf565b610b35565b61014f610bae565b61014f610446366004610eaf565b610bc5565b61016460065481565b61045c610bf1565b600555565b610469610bf1565b600655565b610476610bf1565b60408051808201825292835260208084019283526000948552600c9052909220905181559051600190910155565b6104ac610bf1565b6001600160a01b03166000908152600a60205260409020805460ff19166001179055565b6104d8610bf1565b806001600160a01b031663a9059cbb6104f96001546001600160a01b031690565b6040516370a0823160e01b81523060048201526001600160a01b038516906370a082319060240160206040518083038186803b15801561053857600080fd5b505afa15801561054c573d6000803e3d6000fd5b505050506040513d601f19601f820116820180604052508101906105709190610ef4565b6040516001600160e01b031960e085901b1681526001600160a01b0390921660048301526024820152604401602060405180830381600087803b1580156105b657600080fd5b505af11580156105ca573d6000803e3d6000fd5b505050506040513d601f19601f820116820180604052508101906105ee9190610f0d565b5050565b6105fa610c4b565b60045460ff16156106425760405162461bcd60e51b815260206004820152600d60248201526c56656e7461205061757361646160981b60448201526064015b60405180910390fd5b6001600160a01b0382166000908152600a602052604090205460ff1661069a5760405162461bcd60e51b815260206004820152600d60248201526c24b73b30b634b2102a37b5b2b760991b6044820152606401610639565b6002546000908152600c602090815260408083208151808301909252805482526001015491810191909152906106cf83610ca5565b905060006106e1338460000151610d3d565b600454909150600160a81b900460ff1615610755573360009081526009602052604090205460ff166107555760405162461bcd60e51b815260206004820152601860248201527f596f7520617265206e6f7420696e2057686974654c69737400000000000000006044820152606401610639565b6040516370a0823160e01b815233600482015284906001600160a01b038716906370a082319060240160206040518083038186803b15801561079657600080fd5b505afa1580156107aa573d6000803e3d6000fd5b505050506040513d601f19601f820116820180604052508101906107ce9190610ef4565b101561080d5760405162461bcd60e51b815260206004820152600e60248201526d42616c616e636520546f204c6f7760901b6044820152606401610639565b60006108198286610f45565b9050600081606461082a8683610f67565b6108349190610f45565b61083e9190610f86565b61085090670de0b6b3a7640000610f67565b905080600560008282546108649190610f86565b92505081905550856006600082825461087d9190610f86565b9091555050600554602086015114156108c3576001600260008282546108a39190610f86565b925050819055506000600560008282546108bd9190610f86565b90915550505b600480546040516323b872dd60e01b8152339281019290925261010090046001600160a01b039081166024830152604482018890528816906323b872dd90606401602060405180830381600087803b15801561091e57600080fd5b505af1158015610932573d6000803e3d6000fd5b505050506040513d601f19601f820116820180604052508101906109569190610f0d565b6109965760405162461bcd60e51b815260206004820152601160248201527022b93937b91034b7102a3930b739b332b960791b6044820152606401610639565b60075460405163a9059cbb60e01b8152336004820152602481018390526001600160a01b039091169063a9059cbb90604401602060405180830381600087803b1580156109e257600080fd5b505af11580156109f6573d6000803e3d6000fd5b505050506040513d601f19601f82011682018060405250810190610a1a9190610f0d565b610a5a5760405162461bcd60e51b815260206004820152601160248201527022b93937b91034b7102a3930b739b332b960791b6044820152606401610639565b60408051338152602081018490527f1ecc62d178ab4ffe6884f1463e2f3f563fa4090ef4f4a9c7c2682d9aa81abd20910160405180910390a150505050506105ee6001600055565b610aaa610bf1565b6004805460ff60a81b198116600160a81b9182900460ff1615909102179055565b610ad3610bf1565b610add6000610de9565b565b610ae7610bf1565b600480546001600160a01b0390921661010002610100600160a81b0319909216919091179055565b610b17610bf1565b6004805460ff19169055565b610b2b610bf1565b6002556000600555565b610b3d610bf1565b6001600160a01b038116610ba25760405162461bcd60e51b815260206004820152602660248201527f4f776e61626c653a206e6577206f776e657220697320746865207a65726f206160448201526564647265737360d01b6064820152608401610639565b610bab81610de9565b50565b610bb6610bf1565b6004805460ff19166001179055565b610bcd610bf1565b6001600160a01b03166000908152600960205260409020805460ff19166001179055565b6001546001600160a01b03163314610add5760405162461bcd60e51b815260206004820181905260248201527f4f776e61626c653a2063616c6c6572206973206e6f7420746865206f776e65726044820152606401610639565b60026000541415610c9e5760405162461bcd60e51b815260206004820152601f60248201527f5265656e7472616e637947756172643a207265656e7472616e742063616c6c006044820152606401610639565b6002600055565b6000610cb9670de0b6b3a764000083610f45565b9150600060328310158015610cce5750606483105b15610cd7575060195b60648310158015610ce957506101f483105b15610cf2575060325b6101f48310158015610d0557506103e883105b15610d0e575060645b6103e88310158015610d21575061138883105b15610d2a575060965b6113888310610d37575060c85b92915050565b6008546040516370a0823160e01b81526001600160a01b03848116600483015260009283929116906370a082319060240160206040518083038186803b158015610d8657600080fd5b505afa158015610d9a573d6000803e3d6000fd5b505050506040513d601f19601f82011682018060405250810190610dbe9190610ef4565b9050826305f5e100821115610de157610dde8466b1a2bc2ec50000610e3b565b90505b949350505050565b600180546001600160a01b038381166001600160a01b0319831681179093556040519116919082907f8be0079c531659141344cd1fd0a4f28419497f9722a3daafe3b4186f6b6457e090600090a35050565b6000610e478284610f9e565b9392505050565b600060208284031215610e6057600080fd5b5035919050565b600080600060608486031215610e7c57600080fd5b505081359360208301359350604090920135919050565b80356001600160a01b0381168114610eaa57600080fd5b919050565b600060208284031215610ec157600080fd5b610e4782610e93565b60008060408385031215610edd57600080fd5b610ee683610e93565b946020939093013593505050565b600060208284031215610f0657600080fd5b5051919050565b600060208284031215610f1f57600080fd5b81518015158114610e4757600080fd5b634e487b7160e01b600052601160045260246000fd5b600082610f6257634e487b7160e01b600052601260045260246000fd5b500490565b6000816000190483118215151615610f8157610f81610f2f565b500290565b60008219821115610f9957610f99610f2f565b500190565b600082821015610fb057610fb0610f2f565b50039056fea2646970667358221220e7e0da208e14fb0b696e450d1b82d928b4feb44214005b04bf36f4dc93e80a8964736f6c63430008090033",
  "linkReferences": {},
  "deployedLinkReferences": {}
}