{
  "_format": "hh-sol-artifact-1",
  "contractName": "REFFISELL",
  "sourceName": "contracts/refisell.sol",
  "abi": [
    {
      "inputs": [
        {
          "internalType": "address",
          "name": "_criptovision",
          "type": "address"
        },
        {
          "internalType": "address",
          "name": "_refi",
          "type": "address"
        },
        {
          "internalType": "address",
          "name": "_walletDindon",
          "type": "address"
        }
      ],
      "stateMutability": "nonpayable",
      "type": "constructor"
    },
    {
      "anonymous": false,
      "inputs": [
        {
          "indexed": false,
          "internalType": "address",
          "name": "refer",
          "type": "address"
        },
        {
          "indexed": false,
          "internalType": "uint256",
          "name": "_amount",
          "type": "uint256"
        }
      ],
      "name": "AirdopReferal",
      "type": "event"
    },
    {
      "anonymous": false,
      "inputs": [
        {
          "indexed": true,
          "internalType": "address",
          "name": "previousOwner",
          "type": "address"
        },
        {
          "indexed": true,
          "internalType": "address",
          "name": "newOwner",
          "type": "address"
        }
      ],
      "name": "OwnershipTransferred",
      "type": "event"
    },
    {
      "anonymous": false,
      "inputs": [
        {
          "indexed": false,
          "internalType": "address",
          "name": "buyer",
          "type": "address"
        },
        {
          "indexed": false,
          "internalType": "uint256",
          "name": "_amount",
          "type": "uint256"
        }
      ],
      "name": "ReffiBuyed",
      "type": "event"
    },
    {
      "inputs": [
        {
          "internalType": "uint256",
          "name": "_phase",
          "type": "uint256"
        },
        {
          "internalType": "uint256",
          "name": "_price",
          "type": "uint256"
        },
        {
          "internalType": "uint256",
          "name": "_amount",
          "type": "uint256"
        }
      ],
      "name": "AddPhase",
      "outputs": [],
      "stateMutability": "nonpayable",
      "type": "function"
    },
    {
      "inputs": [
        {
          "internalType": "address",
          "name": "_address",
          "type": "address"
        }
      ],
      "name": "AddTokenAccept",
      "outputs": [],
      "stateMutability": "nonpayable",
      "type": "function"
    },
    {
      "inputs": [
        {
          "internalType": "address",
          "name": "_address",
          "type": "address"
        }
      ],
      "name": "AddWhiteList",
      "outputs": [],
      "stateMutability": "nonpayable",
      "type": "function"
    },
    {
      "inputs": [
        {
          "internalType": "address",
          "name": "_token",
          "type": "address"
        },
        {
          "internalType": "uint256",
          "name": "_amount",
          "type": "uint256"
        }
      ],
      "name": "BuyReffi",
      "outputs": [],
      "stateMutability": "nonpayable",
      "type": "function"
    },
    {
      "inputs": [],
      "name": "ChangeActivateWhiteList",
      "outputs": [],
      "stateMutability": "nonpayable",
      "type": "function"
    },
    {
      "inputs": [
        {
          "internalType": "uint256",
          "name": "_number",
          "type": "uint256"
        }
      ],
      "name": "ChangePhase",
      "outputs": [],
      "stateMutability": "nonpayable",
      "type": "function"
    },
    {
      "inputs": [
        {
          "internalType": "address",
          "name": "_address",
          "type": "address"
        }
      ],
      "name": "ChangeWalletLiquidity",
      "outputs": [],
      "stateMutability": "nonpayable",
      "type": "function"
    },
    {
      "inputs": [],
      "name": "PhaseSelling",
      "outputs": [
        {
          "internalType": "uint256",
          "name": "",
          "type": "uint256"
        }
      ],
      "stateMutability": "view",
      "type": "function"
    },
    {
      "inputs": [
        {
          "internalType": "address",
          "name": "_token",
          "type": "address"
        }
      ],
      "name": "RecoverTokens",
      "outputs": [],
      "stateMutability": "nonpayable",
      "type": "function"
    },
    {
      "inputs": [],
      "name": "TotalSelling",
      "outputs": [
        {
          "internalType": "uint256",
          "name": "",
          "type": "uint256"
        }
      ],
      "stateMutability": "view",
      "type": "function"
    },
    {
      "inputs": [],
      "name": "addPhases",
      "outputs": [],
      "stateMutability": "nonpayable",
      "type": "function"
    },
    {
      "inputs": [],
      "name": "getPhase",
      "outputs": [
        {
          "internalType": "uint256",
          "name": "",
          "type": "uint256"
        }
      ],
      "stateMutability": "view",
      "type": "function"
    },
    {
      "inputs": [],
      "name": "getPhaseCost",
      "outputs": [
        {
          "internalType": "uint256",
          "name": "",
          "type": "uint256"
        }
      ],
      "stateMutability": "view",
      "type": "function"
    },
    {
      "inputs": [],
      "name": "getPhasePrice",
      "outputs": [
        {
          "internalType": "uint256",
          "name": "",
          "type": "uint256"
        }
      ],
      "stateMutability": "view",
      "type": "function"
    },
    {
      "inputs": [],
      "name": "lock",
      "outputs": [],
      "stateMutability": "nonpayable",
      "type": "function"
    },
    {
      "inputs": [],
      "name": "owner",
      "outputs": [
        {
          "internalType": "address",
          "name": "",
          "type": "address"
        }
      ],
      "stateMutability": "view",
      "type": "function"
    },
    {
      "inputs": [],
      "name": "renounceOwnership",
      "outputs": [],
      "stateMutability": "nonpayable",
      "type": "function"
    },
    {
      "inputs": [
        {
          "internalType": "address",
          "name": "newOwner",
          "type": "address"
        }
      ],
      "name": "transferOwnership",
      "outputs": [],
      "stateMutability": "nonpayable",
      "type": "function"
    },
    {
      "inputs": [],
      "name": "unlock",
      "outputs": [],
      "stateMutability": "nonpayable",
      "type": "function"
    }
  ],
  "bytecode": "0x6080604052600160025534801561001557600080fd5b50604051620014223803806200142283398101604081905261003691610332565b6001600055610044336102c4565b60048054610100600160a81b0319166101006001600160a01b0393841602178155600780546001600160a01b0319908116948416949094179055600880549093169390911692909217905560408051808201825267016345785d8a000081526a04f7d1e992e034fdc00000602080830191825260016000818152600c80845294517fd421a5181c571bba3f01190c922c3b2a896fc1d84e86c9f17ac10e67ebef8b5c5592517fd421a5181c571bba3f01190c922c3b2a896fc1d84e86c9f17ac10e67ebef8b5d5584518086018652670214e8348c4f000081526a022bdd88fed9efc6a000008184018181526002865286855291517f5d6016397a73f5e079297ac5a36fef17b4d9c3831618e63ab105738020ddd7205590517f5d6016397a73f5e079297ac5a36fef17b4d9c3831618e63ab105738020ddd72155855180870187526702c68af0bb14000081528084018281526003865286855290517fc0da782485e77ae272268ae0a3ff44c1552ecb60b3743924de17a815e0a3cfd755517fc0da782485e77ae272268ae0a3ff44c1552ecb60b3743924de17a815e0a3cfd85585518087019096526703782dace9d90000865285830190815295835292815292517f5b84bb9e0f5aa9cc45a8bb66468db5d4816d1e75ff86b5e1f1dd8d144dab80975592517f5b84bb9e0f5aa9cc45a8bb66468db5d4816d1e75ff86b5e1f1dd8d144dab809855600a9091527fb0775d57c3eeb070f58d410e36e9ff396813a5d76997d9a91bdf10f0798296f0805460ff19908116831790915573e9e7cea3dedca5984780bafc599bd69add087d569092527f588f8bca8b2048a19ea94cc48f893d0bde00a1faadb2e5327aa9408686f2bdf28054909216179055610375565b600180546001600160a01b038381166001600160a01b0319831681179093556040519116919082907f8be0079c531659141344cd1fd0a4f28419497f9722a3daafe3b4186f6b6457e090600090a35050565b80516001600160a01b038116811461032d57600080fd5b919050565b60008060006060848603121561034757600080fd5b61035084610316565b925061035e60208501610316565b915061036c60408501610316565b90509250925092565b61109d80620003856000396000f3fe608060405234801561001057600080fd5b50600436106101215760003560e01c8063a69df4b5116100ad578063eced028011610071578063eced0280146103d9578063f2fde38b146103e1578063f83d08ba146103f4578063f8d5f409146103fc578063f9b496401461040f57600080fd5b8063a69df4b5146101d8578063c362d20c146101e0578063cf922b1e146101e9578063d3afd6ac146101fc578063e7cc0f79146103bf57600080fd5b80635a53bf31116100f45780635a53bf31146101875780636f6a5d061461019a578063715018a6146101a25780638da5cb5b146101aa578063939edd0e146101c557600080fd5b8063120005ae146101265780631c5f80241461014c5780632fea6ac414610161578063478b0f8714610174575b600080fd5b6002546000908152600c60205260409020545b6040519081526020015b60405180910390f35b61015f61015a366004610f00565b610418565b005b61015f61016f366004610f48565b61044e565b61015f610182366004610f48565b61047a565b61015f610195366004610f63565b61059c565b61015f610a4d565b61015f610a76565b6001546040516001600160a01b039091168152602001610143565b61015f6101d3366004610f48565b610a8a565b61015f610aba565b61013960055481565b61015f6101f7366004610f8d565b610ace565b61015f60408051808201825267016345785d8a000081526a04f7d1e992e034fdc00000602080830191825260016000908152600c80835293517fd421a5181c571bba3f01190c922c3b2a896fc1d84e86c9f17ac10e67ebef8b5c5591517fd421a5181c571bba3f01190c922c3b2a896fc1d84e86c9f17ac10e67ebef8b5d5583518085018552670214e8348c4f000081526a022bdd88fed9efc6a000008183018181526002855285845291517f5d6016397a73f5e079297ac5a36fef17b4d9c3831618e63ab105738020ddd7205590517f5d6016397a73f5e079297ac5a36fef17b4d9c3831618e63ab105738020ddd72155845180860186526702c68af0bb14000081528083018281526003855285845290517fc0da782485e77ae272268ae0a3ff44c1552ecb60b3743924de17a815e0a3cfd755517fc0da782485e77ae272268ae0a3ff44c1552ecb60b3743924de17a815e0a3cfd85584518086019095526703782dace9d90000855284820190815260049092529190915290517f5b84bb9e0f5aa9cc45a8bb66468db5d4816d1e75ff86b5e1f1dd8d144dab809755517f5b84bb9e0f5aa9cc45a8bb66468db5d4816d1e75ff86b5e1f1dd8d144dab809855565b6002546000908152600c6020526040902060010154610139565b600254610139565b61015f6103ef366004610f48565b610ae0565b61015f610b59565b61015f61040a366004610f48565b610b70565b61013960065481565b610420610b9c565b60408051808201825292835260208084019283526000948552600c9052909220905181559051600190910155565b610456610b9c565b6001600160a01b03166000908152600a60205260409020805460ff19166001179055565b610482610b9c565b806001600160a01b031663a9059cbb6104a36001546001600160a01b031690565b6040516370a0823160e01b81523060048201526001600160a01b038516906370a082319060240160206040518083038186803b1580156104e257600080fd5b505afa1580156104f6573d6000803e3d6000fd5b505050506040513d601f19601f8201168201806040525081019061051a9190610fa6565b6040516001600160e01b031960e085901b1681526001600160a01b0390921660048301526024820152604401602060405180830381600087803b15801561056057600080fd5b505af1158015610574573d6000803e3d6000fd5b505050506040513d601f19601f820116820180604052508101906105989190610fbf565b5050565b6105a4610bf6565b60045460ff16156105ec5760405162461bcd60e51b815260206004820152600d60248201526c56656e7461205061757361646160981b60448201526064015b60405180910390fd5b6001600160a01b0382166000908152600a602052604090205460ff166106445760405162461bcd60e51b815260206004820152600d60248201526c24b73b30b634b2102a37b5b2b760991b60448201526064016105e3565b6002546000908152600c6020908152604080832081518083019092528054825260010154918101919091529061067a3384610c50565b9050600061068c338460000151610df1565b600454909150600160a81b900460ff1615610700573360009081526009602052604090205460ff166107005760405162461bcd60e51b815260206004820152601860248201527f596f7520617265206e6f7420696e2057686974654c697374000000000000000060448201526064016105e3565b6040516370a0823160e01b815233600482015284906001600160a01b038716906370a082319060240160206040518083038186803b15801561074157600080fd5b505afa158015610755573d6000803e3d6000fd5b505050506040513d601f19601f820116820180604052508101906107799190610fa6565b10156107b85760405162461bcd60e51b815260206004820152600e60248201526d42616c616e636520546f204c6f7760901b60448201526064016105e3565b60006107c48286610ff7565b9050600081846107d5606483610ff7565b6107df9190611019565b6107e99190611038565b6107fb90670de0b6b3a7640000611019565b9050806005600082825461080f9190611038565b9250508190555085600660008282546108289190611038565b90915550506005546020860151141561086e5760016002600082825461084e9190611038565b925050819055506000600560008282546108689190611038565b90915550505b600480546040516323b872dd60e01b8152339281019290925261010090046001600160a01b039081166024830152604482018890528816906323b872dd90606401602060405180830381600087803b1580156108c957600080fd5b505af11580156108dd573d6000803e3d6000fd5b505050506040513d601f19601f820116820180604052508101906109019190610fbf565b6109415760405162461bcd60e51b815260206004820152601160248201527022b93937b91034b7102a3930b739b332b960791b60448201526064016105e3565b60075460405163a9059cbb60e01b8152336004820152602481018390526001600160a01b039091169063a9059cbb90604401602060405180830381600087803b15801561098d57600080fd5b505af11580156109a1573d6000803e3d6000fd5b505050506040513d601f19601f820116820180604052508101906109c59190610fbf565b610a055760405162461bcd60e51b815260206004820152601160248201527022b93937b91034b7102a3930b739b332b960791b60448201526064016105e3565b60408051338152602081018490527f1ecc62d178ab4ffe6884f1463e2f3f563fa4090ef4f4a9c7c2682d9aa81abd20910160405180910390a150505050506105986001600055565b610a55610b9c565b6004805460ff60a81b198116600160a81b9182900460ff1615909102179055565b610a7e610b9c565b610a886000610e9b565b565b610a92610b9c565b600480546001600160a01b0390921661010002610100600160a81b0319909216919091179055565b610ac2610b9c565b6004805460ff19169055565b610ad6610b9c565b6002556000600555565b610ae8610b9c565b6001600160a01b038116610b4d5760405162461bcd60e51b815260206004820152602660248201527f4f776e61626c653a206e6577206f776e657220697320746865207a65726f206160448201526564647265737360d01b60648201526084016105e3565b610b5681610e9b565b50565b610b61610b9c565b6004805460ff19166001179055565b610b78610b9c565b6001600160a01b03166000908152600960205260409020805460ff19166001179055565b6001546001600160a01b03163314610a885760405162461bcd60e51b815260206004820181905260248201527f4f776e61626c653a2063616c6c6572206973206e6f7420746865206f776e657260448201526064016105e3565b60026000541415610c495760405162461bcd60e51b815260206004820152601f60248201527f5265656e7472616e637947756172643a207265656e7472616e742063616c6c0060448201526064016105e3565b6002600055565b6008546040516370a0823160e01b81526001600160a01b03848116600483015260009283929116906370a082319060240160206040518083038186803b158015610c9957600080fd5b505afa158015610cad573d6000803e3d6000fd5b505050506040513d601f19601f82011682018060405250810190610cd19190610fa6565b9050610ce16305f5e10082610ff7565b9050610cf5670de0b6b3a764000084610ff7565b925060006001821115610daa576203d0908210158015610d16575060328410155b15610d1f575060195b6207a1208210158015610d33575060648410155b15610d3c575060325b6207a1218210158015610d525750620f42408211155b8015610d6057506101f48410155b15610d69575060645b620f42408210158015610d7e57506103e88410155b15610d87575060965b620f42408210158015610d9c57506113888410155b15610da5575060c85b610de9565b60328410610db6575060195b60648410610dc2575060325b6101f48410610dcf575060645b6103e88410610ddc575060965b6113888410610de9575060c85b949350505050565b6008546040516370a0823160e01b81526001600160a01b03848116600483015260009283929116906370a082319060240160206040518083038186803b158015610e3a57600080fd5b505afa158015610e4e573d6000803e3d6000fd5b505050506040513d601f19601f82011682018060405250810190610e729190610fa6565b9050826305f5e100821115610de957610e928466b1a2bc2ec50000610eed565b95945050505050565b600180546001600160a01b038381166001600160a01b0319831681179093556040519116919082907f8be0079c531659141344cd1fd0a4f28419497f9722a3daafe3b4186f6b6457e090600090a35050565b6000610ef98284611050565b9392505050565b600080600060608486031215610f1557600080fd5b505081359360208301359350604090920135919050565b80356001600160a01b0381168114610f4357600080fd5b919050565b600060208284031215610f5a57600080fd5b610ef982610f2c565b60008060408385031215610f7657600080fd5b610f7f83610f2c565b946020939093013593505050565b600060208284031215610f9f57600080fd5b5035919050565b600060208284031215610fb857600080fd5b5051919050565b600060208284031215610fd157600080fd5b81518015158114610ef957600080fd5b634e487b7160e01b600052601160045260246000fd5b60008261101457634e487b7160e01b600052601260045260246000fd5b500490565b600081600019048311821515161561103357611033610fe1565b500290565b6000821982111561104b5761104b610fe1565b500190565b60008282101561106257611062610fe1565b50039056fea2646970667358221220e8d1cff1ecb7c597dd14c3fb66b36256beeb69c234e4b548a93bb5a94eb5a58b64736f6c63430008090033",
  "linkReferences": {},
  "deployedLinkReferences": {}
}