{
  "_format": "hh-sol-artifact-1",
  "contractName": "REFFISELL",
  "sourceName": "contracts/refisell.sol",
  "abi": [
    {
      "inputs": [
        {
          "internalType": "address",
          "name": "_criptovision",
          "type": "address"
        },
        {
          "internalType": "address",
          "name": "_refi",
          "type": "address"
        },
        {
          "internalType": "address",
          "name": "_walletDindon",
          "type": "address"
        }
      ],
      "stateMutability": "nonpayable",
      "type": "constructor"
    },
    {
      "anonymous": false,
      "inputs": [
        {
          "indexed": false,
          "internalType": "address",
          "name": "refer",
          "type": "address"
        },
        {
          "indexed": false,
          "internalType": "uint256",
          "name": "_amount",
          "type": "uint256"
        }
      ],
      "name": "AirdopReferal",
      "type": "event"
    },
    {
      "anonymous": false,
      "inputs": [
        {
          "indexed": true,
          "internalType": "address",
          "name": "previousOwner",
          "type": "address"
        },
        {
          "indexed": true,
          "internalType": "address",
          "name": "newOwner",
          "type": "address"
        }
      ],
      "name": "OwnershipTransferred",
      "type": "event"
    },
    {
      "anonymous": false,
      "inputs": [
        {
          "indexed": false,
          "internalType": "address",
          "name": "buyer",
          "type": "address"
        },
        {
          "indexed": false,
          "internalType": "uint256",
          "name": "_amount",
          "type": "uint256"
        }
      ],
      "name": "ReffiBuyed",
      "type": "event"
    },
    {
      "inputs": [
        {
          "internalType": "uint256",
          "name": "_phase",
          "type": "uint256"
        },
        {
          "internalType": "uint256",
          "name": "_price",
          "type": "uint256"
        },
        {
          "internalType": "uint256",
          "name": "_amount",
          "type": "uint256"
        }
      ],
      "name": "AddPhase",
      "outputs": [],
      "stateMutability": "nonpayable",
      "type": "function"
    },
    {
      "inputs": [
        {
          "internalType": "address",
          "name": "_address",
          "type": "address"
        }
      ],
      "name": "AddTokenAccept",
      "outputs": [],
      "stateMutability": "nonpayable",
      "type": "function"
    },
    {
      "inputs": [
        {
          "internalType": "address",
          "name": "_address",
          "type": "address"
        }
      ],
      "name": "AddWhiteList",
      "outputs": [],
      "stateMutability": "nonpayable",
      "type": "function"
    },
    {
      "inputs": [
        {
          "internalType": "address",
          "name": "_token",
          "type": "address"
        },
        {
          "internalType": "uint256",
          "name": "_amount",
          "type": "uint256"
        }
      ],
      "name": "BuyReffi",
      "outputs": [],
      "stateMutability": "nonpayable",
      "type": "function"
    },
    {
      "inputs": [],
      "name": "ChangeActivateWhiteList",
      "outputs": [],
      "stateMutability": "nonpayable",
      "type": "function"
    },
    {
      "inputs": [
        {
          "internalType": "uint256",
          "name": "_number",
          "type": "uint256"
        }
      ],
      "name": "ChangePhase",
      "outputs": [],
      "stateMutability": "nonpayable",
      "type": "function"
    },
    {
      "inputs": [],
      "name": "PhaseSelling",
      "outputs": [
        {
          "internalType": "uint256",
          "name": "",
          "type": "uint256"
        }
      ],
      "stateMutability": "view",
      "type": "function"
    },
    {
      "inputs": [],
      "name": "TotalSelling",
      "outputs": [
        {
          "internalType": "uint256",
          "name": "",
          "type": "uint256"
        }
      ],
      "stateMutability": "view",
      "type": "function"
    },
    {
      "inputs": [],
      "name": "addPhases",
      "outputs": [],
      "stateMutability": "nonpayable",
      "type": "function"
    },
    {
      "inputs": [],
      "name": "getPhase",
      "outputs": [
        {
          "internalType": "uint256",
          "name": "",
          "type": "uint256"
        }
      ],
      "stateMutability": "view",
      "type": "function"
    },
    {
      "inputs": [],
      "name": "getPhaseCost",
      "outputs": [
        {
          "internalType": "uint256",
          "name": "",
          "type": "uint256"
        }
      ],
      "stateMutability": "view",
      "type": "function"
    },
    {
      "inputs": [],
      "name": "getPhasePrice",
      "outputs": [
        {
          "internalType": "uint256",
          "name": "",
          "type": "uint256"
        }
      ],
      "stateMutability": "view",
      "type": "function"
    },
    {
      "inputs": [],
      "name": "lock",
      "outputs": [],
      "stateMutability": "nonpayable",
      "type": "function"
    },
    {
      "inputs": [],
      "name": "owner",
      "outputs": [
        {
          "internalType": "address",
          "name": "",
          "type": "address"
        }
      ],
      "stateMutability": "view",
      "type": "function"
    },
    {
      "inputs": [],
      "name": "renounceOwnership",
      "outputs": [],
      "stateMutability": "nonpayable",
      "type": "function"
    },
    {
      "inputs": [
        {
          "internalType": "address",
          "name": "newOwner",
          "type": "address"
        }
      ],
      "name": "transferOwnership",
      "outputs": [],
      "stateMutability": "nonpayable",
      "type": "function"
    },
    {
      "inputs": [],
      "name": "unlock",
      "outputs": [],
      "stateMutability": "nonpayable",
      "type": "function"
    }
  ],
  "bytecode": "0x6080604052600160025534801561001557600080fd5b5060405161101f38038061101f833981016040819052610034916100fe565b600160005561004233610090565b60048054610100600160a81b0319166101006001600160a01b0393841602179055600780546001600160a01b0319908116938316939093179055600880549092169216919091179055610141565b600180546001600160a01b038381166001600160a01b0319831681179093556040519116919082907f8be0079c531659141344cd1fd0a4f28419497f9722a3daafe3b4186f6b6457e090600090a35050565b80516001600160a01b03811681146100f957600080fd5b919050565b60008060006060848603121561011357600080fd5b61011c846100e2565b925061012a602085016100e2565b9150610138604085016100e2565b90509250925092565b610ecf806101506000396000f3fe608060405234801561001057600080fd5b506004361061010b5760003560e01c8063c362d20c116100a2578063eced028011610071578063eced02801461039d578063f2fde38b146103a5578063f83d08ba146103b8578063f8d5f409146103c0578063f9b49640146103d357600080fd5b8063c362d20c146101a4578063cf922b1e146101ad578063d3afd6ac146101c0578063e7cc0f791461038357600080fd5b80636f6a5d06116100de5780636f6a5d0614610171578063715018a6146101795780638da5cb5b14610181578063a69df4b51461019c57600080fd5b8063120005ae146101105780631c5f8024146101365780632fea6ac41461014b5780635a53bf311461015e575b600080fd5b6002546000908152600c60205260409020545b6040519081526020015b60405180910390f35b610149610144366004610d32565b6103dc565b005b610149610159366004610d7a565b610412565b61014961016c366004610d95565b61043e565b6101496108f3565b61014961091c565b6001546040516001600160a01b03909116815260200161012d565b610149610930565b61012360055481565b6101496101bb366004610dbf565b610944565b61014960408051808201825267016345785d8a000081526a04f7d1e992e034fdc00000602080830191825260016000908152600c80835293517fd421a5181c571bba3f01190c922c3b2a896fc1d84e86c9f17ac10e67ebef8b5c5591517fd421a5181c571bba3f01190c922c3b2a896fc1d84e86c9f17ac10e67ebef8b5d5583518085018552670214e8348c4f000081526a022bdd88fed9efc6a000008183018181526002855285845291517f5d6016397a73f5e079297ac5a36fef17b4d9c3831618e63ab105738020ddd7205590517f5d6016397a73f5e079297ac5a36fef17b4d9c3831618e63ab105738020ddd72155845180860186526702c68af0bb14000081528083018281526003855285845290517fc0da782485e77ae272268ae0a3ff44c1552ecb60b3743924de17a815e0a3cfd755517fc0da782485e77ae272268ae0a3ff44c1552ecb60b3743924de17a815e0a3cfd85584518086019095526703782dace9d90000855284820190815260049092529190915290517f5b84bb9e0f5aa9cc45a8bb66468db5d4816d1e75ff86b5e1f1dd8d144dab809755517f5b84bb9e0f5aa9cc45a8bb66468db5d4816d1e75ff86b5e1f1dd8d144dab809855565b6002546000908152600c6020526040902060010154610123565b600254610123565b6101496103b3366004610d7a565b610956565b6101496109cf565b6101496103ce366004610d7a565b6109e6565b61012360065481565b6103e4610a12565b60408051808201825292835260208084019283526000948552600c9052909220905181559051600190910155565b61041a610a12565b6001600160a01b03166000908152600a60205260409020805460ff19166001179055565b610446610a6c565b60045460ff161561048e5760405162461bcd60e51b815260206004820152600d60248201526c56656e7461205061757361646160981b60448201526064015b60405180910390fd5b6001600160a01b0382166000908152600a602052604090205460ff166104e65760405162461bcd60e51b815260206004820152600d60248201526c24b73b30b634b2102a37b5b2b760991b6044820152606401610485565b6002546000908152600c6020908152604080832081518083019092528054825260010154918101919091529061051c3384610ac6565b9050600061052e338460000151610c23565b600454909150600160a81b900460ff16156105a2573360009081526009602052604090205460ff166105a25760405162461bcd60e51b815260206004820152601860248201527f596f7520617265206e6f7420696e2057686974654c69737400000000000000006044820152606401610485565b6040516370a0823160e01b815233600482015284906001600160a01b038716906370a082319060240160206040518083038186803b1580156105e357600080fd5b505afa1580156105f7573d6000803e3d6000fd5b505050506040513d601f19601f8201168201806040525081019061061b9190610dd8565b101561065a5760405162461bcd60e51b815260206004820152600e60248201526d42616c616e636520546f204c6f7760901b6044820152606401610485565b60006106668286610e07565b905060008184610677606483610e07565b6106819190610e29565b61068b9190610e48565b61069d90670de0b6b3a7640000610e29565b905085600560008282546106b19190610e48565b9250508190555085600660008282546106ca9190610e48565b909155505060055460208601511415610710576001600260008282546106f09190610e48565b9250508190555060006005600082825461070a9190610e48565b90915550505b600480546040516323b872dd60e01b8152339281019290925261010090046001600160a01b039081166024830152604482018890528816906323b872dd90606401602060405180830381600087803b15801561076b57600080fd5b505af115801561077f573d6000803e3d6000fd5b505050506040513d601f19601f820116820180604052508101906107a39190610e60565b6107e35760405162461bcd60e51b815260206004820152601160248201527022b93937b91034b7102a3930b739b332b960791b6044820152606401610485565b60075460405163a9059cbb60e01b8152336004820152602481018390526001600160a01b039091169063a9059cbb90604401602060405180830381600087803b15801561082f57600080fd5b505af1158015610843573d6000803e3d6000fd5b505050506040513d601f19601f820116820180604052508101906108679190610e60565b6108a75760405162461bcd60e51b815260206004820152601160248201527022b93937b91034b7102a3930b739b332b960791b6044820152606401610485565b60408051338152602081018490527f1ecc62d178ab4ffe6884f1463e2f3f563fa4090ef4f4a9c7c2682d9aa81abd20910160405180910390a150505050506108ef6001600055565b5050565b6108fb610a12565b6004805460ff60a81b198116600160a81b9182900460ff1615909102179055565b610924610a12565b61092e6000610ccd565b565b610938610a12565b6004805460ff19169055565b61094c610a12565b6002556000600555565b61095e610a12565b6001600160a01b0381166109c35760405162461bcd60e51b815260206004820152602660248201527f4f776e61626c653a206e6577206f776e657220697320746865207a65726f206160448201526564647265737360d01b6064820152608401610485565b6109cc81610ccd565b50565b6109d7610a12565b6004805460ff19166001179055565b6109ee610a12565b6001600160a01b03166000908152600960205260409020805460ff19166001179055565b6001546001600160a01b0316331461092e5760405162461bcd60e51b815260206004820181905260248201527f4f776e61626c653a2063616c6c6572206973206e6f7420746865206f776e65726044820152606401610485565b60026000541415610abf5760405162461bcd60e51b815260206004820152601f60248201527f5265656e7472616e637947756172643a207265656e7472616e742063616c6c006044820152606401610485565b6002600055565b6008546040516370a0823160e01b81526001600160a01b03848116600483015260009283929116906370a082319060240160206040518083038186803b158015610b0f57600080fd5b505afa158015610b23573d6000803e3d6000fd5b505050506040513d601f19601f82011682018060405250810190610b479190610dd8565b9050610b576305f5e10082610e07565b9050610b6b670de0b6b3a764000084610e07565b925060006001821115610c1b576203d0908210158015610b8c575060328410155b15610b95575060195b6207a1208210158015610ba9575060648410155b15610bb2575060325b6207a1218210158015610bc85750620f42408211155b8015610bd657506103e88410155b15610bdf575060645b620f42408210158015610bf457506103e88410155b15610bfd575060965b620f42408210158015610c1257506113888410155b15610c1b575060c85b949350505050565b6008546040516370a0823160e01b81526001600160a01b03848116600483015260009283929116906370a082319060240160206040518083038186803b158015610c6c57600080fd5b505afa158015610c80573d6000803e3d6000fd5b505050506040513d601f19601f82011682018060405250810190610ca49190610dd8565b9050826305f5e100821115610c1b57610cc48466b1a2bc2ec50000610d1f565b95945050505050565b600180546001600160a01b038381166001600160a01b0319831681179093556040519116919082907f8be0079c531659141344cd1fd0a4f28419497f9722a3daafe3b4186f6b6457e090600090a35050565b6000610d2b8284610e82565b9392505050565b600080600060608486031215610d4757600080fd5b505081359360208301359350604090920135919050565b80356001600160a01b0381168114610d7557600080fd5b919050565b600060208284031215610d8c57600080fd5b610d2b82610d5e565b60008060408385031215610da857600080fd5b610db183610d5e565b946020939093013593505050565b600060208284031215610dd157600080fd5b5035919050565b600060208284031215610dea57600080fd5b5051919050565b634e487b7160e01b600052601160045260246000fd5b600082610e2457634e487b7160e01b600052601260045260246000fd5b500490565b6000816000190483118215151615610e4357610e43610df1565b500290565b60008219821115610e5b57610e5b610df1565b500190565b600060208284031215610e7257600080fd5b81518015158114610d2b57600080fd5b600082821015610e9457610e94610df1565b50039056fea2646970667358221220a76e8430c20901bba692f5c593899134435be123804a923be5da5154562a961864736f6c63430008090033",
  "linkReferences": {},
  "deployedLinkReferences": {}
}